S025000057494E43313530302050726F776C204D6F6E69746F72206F6E204432312E7372656308
S1130000D8230020799400007195000071950000B8
S113001000000000000000000000000000000000DC
S113002000000000000000000000000071950000C6
S113003000000000000000007195000071950000B0
S11300407195000071950000719500007195000094
S113005075620000719500007195000071950000B3
S113006071950000FD6D0000156E00002D6E0000FE
S1130070456E00005D6E0000756E00007195000015
S11300807195000071950000890100009D01000038
S1130090B1010000C5010000D90100007195000004
S11300A07195000071950000719500007195000034
S11300B00000000010B5064C2378002B07D1054B37
S11300C0002B02D0044800E000BF0123237010BDC0
S11300D08000002000000000E4DB0000084B10B5A5
S11300E0002B03D00749084800E000BF0748036815
S11300F0002B00D110BD064B002BFBD09847F9E72D
S11301000000000084000020E4DB0000E4DB0000C9
S11301100000000080B584B000AFF860B960FB1D3A
S11301201A70FB1D1A78FB6802329200B968D1502C
S1130130FB1D1B78022B07D1FB681B7E1022134387
S1130140DAB2FB681A7619E0FB1D1B78032B07D182
S1130150FB681B7E20221343DAB2FB681A760DE09B
S1130160FB681B7E5AB2FB1D1B78012199400B00D2
S11301705BB213435BB2DAB2FB681A760023180051
S1130180BD4604B080BDC04680B500AF0020024B20
S11301909847C046BD4680BDED01000080B500AF64
S11301A00120024B9847C046BD4680BDED010000CA
S11301B080B500AF0220024B9847C046BD4680BDC3
S11301C0ED01000080B500AF0320024B9847C04604
S11301D0BD4680BDED01000080B500AF0420024B98
S11301E09847C046BD4680BDED01000080B584B08F
S11301F000AF0200FB1D1A70FB1D1A78284B9200F9
S1130200D358FB60FB681B689B7BDBB2FA68127EE9
S11302101340DAB2FB68597E0B23FB180A401A70AC
S11302200B23FB181B780122134008D0FB689B6842
S1130230FA6810009847FB681B6801229A730B2325
S1130240FB181B780222134008D0FB68DB68FA68AD
S113025010009847FB681B6802229A730B23FB1853
S11302601B781022134008D0FB681B69FA68100041
S11302709847FB681B6810229A730B23FB181B78A2
S11302802022134008D0FB685B69FA681000984785
S1130290FB681B6820229A73C046BD4604B080BD2B
S11302A0D001002080B582B000AF78607B68002266
S11302B01A70C046BD4602B080BDC04680B582B04B
S11302C000AF02003960FB1D1A70FB1D1B78012B67
S11302D00AD0022B0FD0002B14D10E4B0D4A91697A
S11302E03A680A439A610FE00A4B0A4AD1693A68AC
S11302F00A43DA6108E0074B064A116A3A680A437E
S11303001A6201E0172300E000231800BD4602B082
S113031080BDC0460004004080B582B000AF786064
S11303207B6880221A707B6800225A707B680122E5
S11303309A707B680022DA70C046BD4602B080BD68
S113034080B584B000AF78607B681B68FB60FB6895
S1130350DB7BDBB21A00802313405A1E9341DBB2CD
S11303601800BD4604B080BD90B589B000AF786078
S11303700823FB180E4A13CA13C303CA03C300237A
S1130380FB610DE00823FB18FA699200D2587B68E0
S11303909A4202D1FB69DBB206E0FB690133FB61DF
S11303A0FB69042BEED900231800BD4609B090BDAB
S11303B0A0C5000090B58DB000AFF860B9607A6058
S11303C02E23FB1800221A802D23FB1800221A70FA
S11303D02C23FB1800221A702923FC18BB68180070
S11303E0BF4B9847030023702423FA18BD4B100019
S11303F0190005231A00BC4B98471823FA18BB4B65
S1130400100019000A231A00B74B98472B23FB1836
S113041000221A700EE02B23FB181A78FB680232B4
S113042092000021D1502B23FB181A782B23FB18A0
S113043001321A702B23FB181B78032BEBD9FB68B2
S113044000221A76FB6800225A762923FB181A78B0
S1130450A74B9200F968D150FB68BA681A607B68B0
S11304609B78082B08D12923FB181B78033301221E
S1130470134001D01723C4E17B689A78FB681A7192
S1130480BB681B889BB21A000123134001D00523CB
S1130490B7E1BB68DB7BDBB21A001023134001D049
S11304A01C23AEE1BB681B889BB21A0002231340D5
S11304B001D01C23A5E17B681B7C002B17D01423DF
S11304C0FB1818008B4B98477B689B69DAB214239E
S11304D0FB181A701423FB1801225A707B685B699D
S11304E0DBB21422BA1811001800834B98477B68BA
S11304F01B7F002B17D01423FB1818007D4B984743
S11305007B685B6ADAB21423FB181A701423FB1895
S113051001225A707B681B6ADBB21422BA181100DC
S11305201800754B98472923FB181A781823FB18D1
S11305305200D35A19000220704B98477B689B786D
S1130540082B0BD12923FB181B785A1C1823FB18E2
S11305505200D35A19000220684B98471023FB1805
S11305601800674B98477B681A781023FB181A7099
S11305702923FB181B782422BA18D35C1022BA183A
S1130580110018005F4B98472923FB181B7824227D
S1130590BA18D35C18005C4B98477B689A787B68E0
S11305A09B791343DBB29AB27B681B89134399B2DC
S11305B07B689A882E23FB180A431A807B685B7831
S11305C0002B08D02E23FB182E22BA181288802163
S11305D009010A431A80C046FB6818004B4B984730
S11305E0031EF9D1BB682E22BA1812881A807B68C0
S11305F05B7B002B03D02D23FB1804221A707B682D
S11306009B7B002B07D02D23FB182D22BA181278C0
S113061001210A431A70C046FB6818003B4B9847F7
S1130620031EF9D1BB68FF221A712D23FB181B7816
S1130630002B0BD0C046FB681800344B9847031EB0
S1130640F9D1BB682D22BA1812785A712C23FB18E1
S11306507A68927A1A702A23FB1800221A701CE016
S11306602A23FB181B787A68D318DB7A002B0DD069
S11306702A23FB181B7810229A401300D9B22C238A
S1130680FB182C22BA1812780A431A702A23FB1872
S11306901A782A23FB1801321A702A23FB181B78B4
S11306A0012BDDD9C046FB681800184B9847031E80
S11306B0F9D1BB682C22BA1812789A71C046FB682B
S11306C01800124B9847031EF9D1FB681B79042BC1
S11306D01ED0082B00D170E0002B4BD090E0C04618
S11306E069030000B4C5000091B00000BCC500005F
S11306F0D001002019030000F1930000BD020000A6
S1130700A50200000591000049910000410300008A
S1130710C046FB6818003D4B9847031EF9D17B681F
S113072028229A5CBB681A74C046FB681800374BD1
S11307309847031EF9D17B6829229A5CBB681A7515
S1130740C046FB681800314B9847031EF9D17B68FB
S11307502A229A5CBB681A76C046FB6818002B4BA9
S11307609847031EF9D17B682B229A5CBB685A76A2
S1130770002346E0C046FB681800244B9847031E3C
S1130780F9D17B681A8DBB681A82C046FB681800D1
S11307901E4B9847031EF9D17B685A8DBB681A8398
S11307A0C046FB681800194B9847031EF9D17B68B3
S11307B09A8DBB685A83002323E0C046FB68180067
S11307C0124B9847031EF9D17B689A6ABB681A6179
S11307D0C046FB6818000D4B9847031EF9D17B688F
S11307E0DA6ABB689A61C046FB681800074B9847F1
S11307F0031EF9D17B681A6BBB68DA61002300E041
S113080017231800BD460DB090BDC046410300003B
S113081080B582B000AF0200FB1D1A70064BFA1DB2
S1130820127811001F220A40012191400A001A6027
S1130830C046BD4602B080BD00E100E080B584B092
S113084000AF78607B681B68FB60FB68DB7BDBB216
S11308501A00802313405A1E9341DBB21800BD4690
S113086004B080BD80B582B000AF78607B680022A0
S11308701A707B6800229A707B6800229A807B68D9
S113088000229A717B6800221A817B6800225A70C8
S11308907B6800229A727B680022DA727B680022ED
S11308A01A737B6800229A737B6800225A737B68F0
S11308B000221A747B6800225A617B6800229A61C4
S11308C07B6800221A777B6800221A627B68002208
S11308D05A627B6800221A857B6800225A857B68ED
S11308E000229A85C046BD4602B080BD80B584B062
S11308F000AF78607B681B68FB60C0467B681800AB
S1130900074B9847031EF9D1FB681B889BB2022250
S113091013439AB2FB681A80C046BD4604B080BD3A
S11309203D08000080B582B000AF7860044A7B685F
S1130930D3181B785BB21800BD4602B080BDC04618
S11309400000002080B582B000AF78600A00FB1C74
S11309501A707B681B681800224B98470300180024
S1130960214B984703001800204B9847FB1C1B7829
S1130970022B0BD17B685B7E10221343DAB27B68B7
S11309805A767B681B6810225A7326E0FB1C1B787E
S1130990032B0BD17B685B7E20221343DAB27B6886
S11309A05A767B681B6820225A7316E07B685B7E4C
S11309B05AB2FB1C1B78012199400B005BB2134314
S11309C05BB2DAB27B685A767B681B68FA1C1278D1
S11309D0012191400A00D2B25A73C046BD4602B00A
S11309E080BDC0466903000025090000110800000D
S11309F080B582B000AF7860024B9847C046BD46D0
S1130A0002B080BDEDAC000080B58EB000AF3B1DE0
S1130A101800134B98473B1D04229A703B1D01227A
S1130A201A703B1DC022D2009A803B1D292220212E
S1130A3099543B1D2A22322199543B1D2B226321B8
S1130A4099543A1D0749084B1800084B9847064B20
S1130A501800074B9847C046BD460EB080BDC0463F
S1130A6065080000002C0042E4010020B5030000EA
S1130A70ED08000080B500AF0649074B00221800BE
S1130A80064B9847044B00211800054B9847C04675
S1130A90BD4680BDF1090000E401002015010000FD
S1130AA04509000080B582B000AF78607B68002BF8
S1130AB00CD0084B7A685A60064B00229A60C046F4
S1130AC0044B1A6880235B021340F9D0C046BD462C
S1130AD002B080BD10E000E080B500AF00200F4BF5
S1130AE0984702000E4B1A600D4B18680D4BFA2202
S1130AF09100984703001A00094B1A60084B1868C4
S1130B00084BFA229100984703001A00064B1A601A
S1130B10064B05221A60C046BD4680BD2D900000DC
S1130B2008000020D5AE00000C00002010E000E01A
S1130B3080B582B000AF786004E0074B1B681800F2
S1130B40064B98477B685A1E7A60002BF5D1C04645
S1130B50BD4602B080BDC04608000020A50A0000C2
S1130B6080B584B000AF0200FB1D1A700F23FB1880
S1130B70FA1D1278D2091A700E23FB18FA1D127886
S1130B8052091A700D4BBB600F23FB181B78002B06
S1130B900FD10F23FB181B789B0010229446BC44F2
S1130BA06344083B1A680E23FB181B78DB01D31837
S1130BB000E000231800BD4604B080BD004400419D
S1130BC080B582B000AF0200FB1D1A70FB1D1B78BC
S1130BD01800034B984703001800BD4602B080BDBF
S1130BE0610B000080B582B000AF78607B680022A2
S1130BF01A707B6801225A707B6800229A70C04682
S1130C00BD4602B080BDC04680B584B000AF0200CE
S1130C10FB1D1A70BB1D0A1C1A70FB1D1B781800E3
S1130C200D4B98470300FB60FB1D1B781F221340EC
S1130C3001229A401300BB60BB1D1B78002B03D01C
S1130C40FB68BA689A6102E0FB68BA685A61C046F8
S1130C50BD4604B080BDC046C10B000080B500AFE6
S1130C60044B01221A70BFF35F8F62B6C046BD46C3
S1130C7080BDC0461800002080B500AF044B1B683F
S1130C80002B02D0024B1B689847C046BD4680BD6E
S1130C909C00002080B582B000AF3B1D18000C4BB7
S1130CA098473B1D01221A703B1D19002620094B51
S1130CB098473B1D19002520064B98473B1D1900FA
S1130CC02720044B9847C046BD4602B080BDC046AD
S1130CD0E50B0000D966000080B500AF0C4B002284
S1130CE01A600C4B98470C4B1B680122134004D02C
S1130CF0094B1B680222134001D1084B9847084B4B
S1130D009847084B984700231800BD4680BDC0464D
S1130D109C000020950C000010E000E0D90A0000BF
S1130D20290D00005D0C000080B500AF00212520D6
S1130D300C4B9847002126200A4B984764200A4B05
S1130D40984701212520074B98470A20064B9847CE
S1130D5001212620034B98470A20034B9847C0469D
S1130D60BD4680BD090C00006D0D000080B582B049
S1130D7000AF786002E00120054B98477B685A1E5B
S1130D807A60002BF7D1C046BD4602B080BDC04694
S1130D90310B000080B586B000AF7860154B7A68DF
S1130DA01A600C23FB181800134B98470C23FB18EC
S1130DB024221A600C23FB1800225A600C23FB180F
S1130DC001221A720C23FB180222DA720C23FB187C
S1130DD019000420094B9847094B002204211800EC
S1130DE0084B984700210420074B9847C046BD464E
S1130DF006B080BD9C00002081650000B565000040
S1130E00790C000081610000E561000080B582B0CA
S1130E1000AF0200FB1D1A70FB1D1B78002B04D0D1
S1130E2000210420054B984703E000210420044BD3
S1130E309847C046BD4602B080BDC046E56100008B
S1130E402D62000080B584B000AF0200FB1D1A7053
S1130E500F23FB18FA1D1278D2091A700E23FB18FF
S1130E60FA1D127852091A700D4BBB600F23FB1840
S1130E701B78002B0FD10F23FB181B789B0010222B
S1130E809446BC446344083B1A680E23FB181B7841
S1130E90DB01D31800E000231800BD4604B080BD78
S1130EA00044004180B582B000AF0200FB1D1A70FF
S1130EB0FB1D1B781800034B984703001800BD4620
S1130EC002B080BD450E000080B582B000AF7860EE
S1130ED07B6800221A707B6801225A707B680022AA
S1130EE09A70C046BD4602B080BDC04680B584B08D
S1130EF000AF0200FB1D1A70BB1D0A1C1A70FB1DFB
S1130F001B7818000D4B98470300FB60FB1D1B78F2
S1130F101F22134001229A401300BB60BB1D1B78A3
S1130F20002B03D0FB68BA689A6102E0FB68BA68D8
S1130F305A61C046BD4604B080BDC046A50E00003F
S1130F4080B582B000AF0200FB1D1A70064BFA1D7B
S1130F50127811001F220A40012191400A001A60F0
S1130F60C046BD4602B080BD00E100E080B582B05D
S1130F7000AF0200FB1D1A70074AFB1D1B78190005
S1130F801F230B40012199400B0019008023D150ED
S1130F90C046BD4602B080BD00E100E080B584B02B
S1130FA000AF78607B681B68FB60FB68DB695A1ED6
S1130FB09341DBB21800BD4604B080BD80B582B059
S1130FC000AF78607B6801221A707B6800225A6047
S1130FD07B6800229A607B68C0229203DA607B6897
S1130FE000221A747B6800225A747B6801229A7466
S1130FF07B680122DA747B6800221A757B682422DC
S1131000002199547B6818330C22002118000A4BE4
S113101098477B68094A9A617B6800229A627B68D8
S11310200022DA627B6800221A637B6800225A631A
S1131030C046BD4602B080BDA3B00000A08601003A
S113104080B582B000AF78607B680A221A707B6832
S113105000225A707B6800229A70C046BD4602B0D6
S113106080BDC04680B584B000AF786039603B680D
S11310701A787B681A703B685A787B685A703B68A8
S11310809A787B689A700C23FB1818000B4B9847CE
S11310900C23FB1801221A707B681B780C22BA18E7
S11310A011001800064B98477B681B780121180033
S11310B0044B9847C046BD4604B080BDC90E00002D
S11310C0D9660000ED0E000080B584B000AF7860F2
S11310D07B681B68FB607B681B6818000B4B984798
S11310E0030018000A4B9847C0467B681800094B58
S11310F09847031EF9D1FB681B6802221A43FB6858
S11311001A60C046BD4604B080BDC046B16D000043
S1131110410F00009D0F000080B584B000AF7860DF
S11311207B681B68FB607B681B6818000B4B984747
S1131130030018000A4B9847C0467B681800094B07
S11311409847031EF9D1FB681B68022293431A00D7
S1131150FB681A60C046BD4604B080BDB16D000096
S11311606D0F00009D0F000080B584B000AF786063
S11311707B681B68FB60FB681B7EDBB21A000223E2
S113118013405A1E9341DBB21800BD4604B080BD23
S113119080B584B000AF78607B681B68FB60FB6837
S11311A01B7EDBB21A00012313405A1E9341DBB2AB
S11311B01800BD4604B080BD80B584B000AF78602F
S11311C07B681B68FB60FB681B7EDBB21A00042390
S11311D013405A1E9341DBB21800BD4604B080BDD3
S11311E080B584B000AF78600A00BB1C1A807B68AD
S11311F01B68FB607B6818000A4B984703001A00C1
S113120001235340DBB2002B01D0052306E0BB1CB5
S11312101B88DB05DA0DFB689A6200231800BD46C3
S113122004B080BD9111000080B584B000AF786037
S113123039607B681B68BB607B6818001B4B984750
S113124003001A0001235340DBB2002B01D010230A
S113125027E00F23FB1800221A70BB685B8B9BB23C
S11312601A000423134006D00F23FB181E221A7001
S1131270BB6804225A837B689B79012B08D1BB6825
S11312809B6A9BB2DB05DB0D9AB23B681A8005E0D2
S1131290BB689B6ADBB29AB23B681A800F23FB18C7
S11312A01B781800BD4604B080BDC046B9110000CB
S11312B080B586B000AFF860B960BB1D1A801323F7
S11312C0FB1800221A701723FB1800221A70162329
S11312D0FB1800221A701423FB1800221A80102312
S11312E0FB1800221A80FB68002B07D11323FB187C
S11312F0FB601723FB1801221A700DE0BB68002B5A
S113130007D11323FB18BB601623FB1801221A70A4
S113131002E006235B426AE03749384B0122180099
S1131320374B98474CE0FB681A781423FB181A8053
S1131330C046324B1800334B984703001A00012370
S11313405340DBB2002BF4D1C0461423FB181A8897
S11313502A4B110018002C4B9847031EF5D1C046A8
S1131360264B1800294B984703001A0001235340C9
S1131370DBB2002BF4D1C0461023FA181F4B110026
S11313801800234B9847031EF6D11023FB181B8823
S1131390DAB2BB681A70BB1D1A88BB1D013A1A80E9
S11313A01623FB181B78002B02D1BB680133BB60EA
S11313B01723FB181B78002B02D1FB680133FB6059
S11313C0BB1D1B88002BAED1C0460C4B1800114B23
S11313D0984703001A0001235340DBB2002BF4D1D9
S11313E00549064B00221800054B984700231800B6
S11313F0BD4606B080BDC0460002002004020020A5
S1131400E174000091110000E1110000B911000025
S1131410291200006911000080B592B000AF786015
S11314204723FB1800221A700823FB181800264BC8
S113143098470823FB1805221A700823FA18234B2F
S113144011001800224B98470C23FB181800214B5D
S113145098470C23FB1880225202DA600C23FB18F5
S11314601D4A9A620C23FB1801225242DA620C23B1
S1131470FB181A4A1A630C23FB18194A5A630C23E3
S1131480FB1800221A750C23FB18164A9A610C23C8
S1131490FA181549154B1800154B9847031E02D02E
S11314A006235B420CE0114B1800124B9847124B79
S11314B098470120114B98474723FB181B785BB2D0
S11314C01800BD4612B080BD41100000000200208B
S11314D065100000BD0F00000300040003000600B7
S11314E003000700001BB7000008004204020020AC
S11314F051730000C9100000290D00006D0D00009B
S113150090B585B000AF02003960FB1D1A700F233F
S1131510FB1800221A70FB1D1B78032B0FD13B68AC
S1131520BB60BB681868BB685968BB681B890F221D
S1131530BC181A000F4B98470300237012E00F23C6
S1131540FB18FF221A7086235A000B490B4B180014
S11315500B4B98470B4B18000B4B98470D200B4B2C
S11315609847C0460F23FB181B785BB21800BD4692
S113157005B090BDB1120000F0C50000C8C5000060
S1131580B5B00000DCC50000D5B10000E9B0000032
S113159080B582B000AFFB1D00221A703B1D1800FD
S11315A0094B98473B1D00221A703B1D00225A70BC
S11315B0064B1800064B9847FB1D1B785BB21800BE
S11315C0BD4602B080BDC046C90E00000402002022
S11315D01911000080B584B000AFF860B9607A607A
S11315E07B68002B10D0BB681A78FB681A70FB6804
S11315F00133FB60BB680133BB607B68013B7B60EC
S11316007B68002BEFD100E0C046BD4604B080BD2E
S113161080B584B000AFF8607A600B23FB180A1C15
S11316201A707B68002B0ED0FB680B22BA18127854
S11316301A70FB680133FB607B68013B7B607B684D
S1131640002BF1D100E0C046BD4604B080BDC046C9
S113165080B584B000AF78600E23FB1800221A8096
S113166009E00E23FB181A880E23FB1801321A8096
S11316707B6801337B607B681B78002BF1D10E23E0
S1131680FB181B881800BD4604B080BD80B584B02B
S113169000AFF860B960BB1D1A8020E0FB681A78BF
S11316A0BB681B789A4209D0FB681A78BB681B7820
S11316B09A4201D2FF2317E0012315E0FB681B784F
S11316C0002B01D100230FE0FB680133FB60BB68F2
S11316D00133BB60BB1DBA1D1288013A1A80BB1DC1
S11316E01B88002BDAD100231800BD4604B080BD4E
S11316F090B585B000AF786039603B685A1C3A6099
S11317000F22BA181B7813700F23FB181B78002BB9
S113171001D17B6829E00C23FC183B681800154BA9
S11317209847030023807B685A1C7A600B22BA18FE
S11317301B7813700B23FB181B78002B01D100239B
S113174013E00B23FA180F23FB1812781B789A4224
S1131750E9D10C23FB181A8839687B681800064BFA
S11317609847031EDFD17B68013B1800BD4605B0D6
S113177090BDC046511600008D16000080B586B09D
S113178000AFF860B9607A601323FB1800221A7066
S113179000237B6111E0FA687B69D3181A78B96871
S11317A07B69CB181B789A4204D01323FB180122BF
S11317B01A7006E07B6901337B617A697B689A421F
S11317C0E9D31323FB181B785BB21800BD4606B09F
S11317D080BDC04680B500AF044B1B78DBB201333B
S11317E0DAB2024B1A70C046BD4680BDA300002089
S11317F090B583B000AFFB1D00221A700120134B7B
S11318009847FC1D3B00124A19001000114B9847E1
S113181003002370FB1D1B785BB2002B0DD13B68CA
S1131820022213433B603B68FC1D094A1900100067
S1131830094B98470300237000E0C046FB1D1B784A
S11318405BB21800BD4603B090BDC0460D0E00004B
S113185070100000DD3600000137000080B582B052
S113186000AF3A60FB1D021C1A703B1D0A1C1A8053
S1131870C046BD4602B080BD90B583B000AFFB1D2D
S113188000221A701C4B1B78DBB2002B21D11B4B9E
S11318901B78DBB2032B04D0184B1B78DBB2042B70
S11318A017D1FC1D164B984703002370FB1D1B78B2
S11318B05BB2002B15D1FC1D124A134B110018000A
S11318C0124B984703002370FB1D1B785BB2002B5F
S11318D009D1094B1B78DBB20133DAB2064B1A701B
S11318E002E0C04600E0C046FB1D1B785BB2180056
S11318F0BD4603B090BDC046A1000020A00000205A
S1131900852F000078560000741000000137000095
S113191090B583B000AFFB1D00221A70294B1B78D1
S1131920DBB2002B06D0274B1B78DBB2013BDAB2CB
S1131930244B1A70234B1B78DBB2002B3AD1224B79
S11319401B78DBB2032B04D01F4B1B78DBB2042BB8
S113195030D100233B60FC1D1C4A1D4B11001800B4
S11319601C4B984703002370FB1D1B785BB2002BB4
S11319701DD1FC1D3B0019000120174B98470300A3
S11319802370FB1D1B785BB2002B12D13B68022233
S113199013400FD03B68022293433B603B68FC1D1D
S11319A0190001200B4B98470300237002E0C04646
S11319B000E0C046FB1D1B785BB21800BD4603B0B7
S11319C090BDC046A1000020A000002021430000DB
S11319D07410000001370000DD36000080B582B0CD
S11319E000AF78600E4B00221A600E4B00221A6082
S11319F00D4B00221A700D4B00221A700C4B002262
S1131A001A700C4B18000C4B98470C4B1900032010
S1131A100B4B984700231800BD4602B080BDC0465A
S1131A20A4000020A8000020A1000020A0000020A5
S1131A30A3000020D5170000950D00005D180000DC
S1131A401D24000090B589B000AF040008003A607E
S1131A501900FB1D221C1A70BB1D021C1A703B1DB1
S1131A600A1C1A801F23FB18FF221A70BB1D1B7847
S1131A707F221340DAB21823FB185A701823FB187C
S1131A80FA1D12781A701823FB1808225A803B6B2F
S1131A90002B11D01823FB185B889AB23823F9184D
S1131AA03423FB1809881B88CB189BB2D3189AB22D
S1131AB01823FB185A800AE01823FB185B889AB293
S1131AC03B1D1B88D3189AB21823FB185A801F2376
S1131AD0FC189B4B9847030023701F23FB181B78AB
S1131AE05BB2002B00D003E100233B610E23FB1803
S1131AF000221A8000237B61FB1D1A787B69134343
S1131B007B61BB1D1B781A027B6913437B6118231D
S1131B10FB185B889BB21A047B6913437B617B6966
S1131B201F22BC18874A19001000874B98470300EE
S1131B3023701F23FB181B785BB2002B00D0EEE050
S1131B4000237B617B69022213437B617B691F2233
S1131B50BC187E4A190010007B4B98470300237081
S1131B601F23FB181B785BB2002B00D0D9E00023A5
S1131B703B610E23FB1800221A8031E01F23FC185E
S1131B801423FB18714A19001000714B9847030085
S1131B9023701F23FB181B785BB2002B28D17B69B1
S1131BA00222134013D11F23FC181023FB18694A87
S1131BB019001000664B9847030023701F23FB187D
S1131BC01B785BB2002B15D000233B6112E00E237F
S1131BD0FB181B889BB201339AB20E23FB181A80A0
S1131BE00E23FB181B889BB25B4A9342C6D902E0C2
S1131BF0C04600E0C0463B69002B00D173E03B695E
S1131C00BB601823FB185B889AB21823FB185A8010
S1131C10BB681F22BC181822B918082218004F4BA1
S1131C209847030023701F23FB181B785BB2002B1B
S1131C3000D078E0BB680833BB603B68002B15D04C
S1131C40B8683B1D1A881F23FC183B681900434BD6
S1131C509847030023701F23FB181B785BB2002BEB
S1131C6063D13B1D1A88BB68D318BB603B6B002B48
S1131C7021D03823FB181A883B1D1B88D31A1A005D
S1131C80BB68D318BB60B8683423FB181A881F23B9
S1131C90FC183B6B1900314B9847030023701F233A
S1131CA0FB181B785BB2002B41D13423FB181A8834
S1131CB0BB68D318BB603B699B007B617B690222D4
S1131CC013437B617B691F22BC18254A190010004D
S1131CD01D4B9847030023701F23FB181B785BB22E
S1131CE0002B15D024E01F23FB18FD221A701FE0DF
S1131CF0A023FF331A001B491B4B18001B4B9847AA
S1131D001B4B18001B4B98470D201B4B98470FE0AB
S1131D101F23FC18194B98470300237008E0C046A2
S1131D2006E0C04604E0C04602E0C04600E0C0460B
S1131D301F23FB181B785BB21800BD4609B090BD89
S1131D40791800008C1000000137000078100000A2
S1131D50DD36000000041500E703000049380000E8
S1131D606C10000060C8000000C60000B5B00000A0
S1131D7014C60000D5B10000E9B00000111900003C
S1131D8090B587B002AF0F23FB18FA221A700F2305
S1131D90FC18DA4B9847030023700F23FB181B78B9
S1131DA05BB2002B00D092E10F23FC180823FB1830
S1131DB0D34A19001000D34B9847030023700F2314
S1131DC0FB181B785BB2002B00D072E1BB680122C8
S1131DD0134000D15CE10020CB4B9847BB68012243
S1131DE09343BB60BB680F22BC18C54A190010009E
S1131DF0C64B9847030023700F23FB181B785BB274
S1131E00002B00D0BCE1C24B00221A70BB689B08B7
S1131E109AB20C23FB181205120D1A800C23FB181E
S1131E201B88002B00D121E100233B600F23FC1809
S1131E303B00B84A19001000B24B984703002370C6
S1131E400F23FB181B785BB2002B11D0E7235A0039
S1131E50B149B24B1800B24B9847B24B1800B24B81
S1131E6098470D20B14B98470120A74B984788E12C
S1131E703B680F22BC18391D04221800AC4B98474C
S1131E80030023703B1D5B889AB23B1D5A800F23CD
S1131E90FB181B785BB2002B11D0EB235A009E4930
S1131EA09E4B18009E4B9847A24B18009E4B984798
S1131EB00D209E4B98470120934B984761E13B1DB1
S1131EC05B889BB20C22BA1812889A422ED00C233B
S1131ED0FB181B883A1D528892B29B1A042B25DDED
S1131EE0E023FF331A008C498C4B18008C4B984725
S1131EF00C23FB1819883B1D5B889BB21A003B1D01
S1131F001B78DBB21C003B1D5B78DBB28A48009374
S1131F102300834CA0470D20844B984701207A4B23
S1131F2098470F23FB18FA221A702AE13B1D1B78ED
S1131F30DBB2012B12D1814B1B68002B00D17CE05A
S1131F407E4B1B683A1D5278D0B23A1D528892B229
S1131F50083A91B23A68083298476EE03B1D1B7804
S1131F60DBB2022B11D1764B1B68002B65D0744B6E
S1131F701B683A1D5278D0B23A1D528892B2083A80
S1131F8091B23A680832984757E03B1D1B78DBB2A0
S1131F90042B11D16B4B1B68002B4ED0694B1B6873
S1131FA03A1D5278D0B23A1D528892B2083A91B290
S1131FB03A680832984740E03B1D1B78DBB2062B99
S1131FC011D1614B1B68002B37D05F4B1B683A1D46
S1131FD05278D0B23A1D528892B2083A91B23A6815
S1131FE00832984729E03B1D1B78DBB2072B11D13F
S1131FF0564B1B68002B20D0544B1B683A1D52785B
S1132000D0B23A1D528892B2083A91B23A68083274
S1132010984712E04E4A4049404B1800404B9847BD
S11320204C4B1800404B98470D20404B98470F23CA
S1132030FB18FA221A70C046A3E0354B1B78DBB2BA
S1132040002B53D1444A3449344B1800344B98473D
S1132050424B1800344B98470D20344B98470F23BC
S1132060FC183F4B9847030023703FE00F23FB18F5
S1132070FE221A703B4A2849284B1800284B9847DF
S1132080394B1800284B98470D20284B984778E087
S113209086239A002049214B1800214B9847BA689F
S11320A0324B110018001E4B98470D201F4B9847C8
S11320B01CE02F4A1849194B1800194B98472D4B0F
S11320C01800194B98470D20184B984759E089235D
S11320D09A001149114B1800114B9847264B1800D0
S11320E0114B98470D20114B98474AE00F23FC18D9
S11320F0224B98470300237043E0C0467918000040
S113210070100000DD3600000D0E000001370000E5
S1132110A2000020841000006CC8000000C600006B
S1132120B5B0000030C60000D5B10000E9B0000031
S11321305137000054C600006CC60000A400002003
S1132140A8000020AC000020B8000020B00000204F
S113215002020000ACC6000009020000C4C6000070
S1132160F117000011020000E8C60000FCC60000E0
S11321701E02000018C700003CC70000111900002F
S1132180C0460F23FB181B785BB21800BD4605B090
S113219090BDC04690B583B000AFFB1D00221A70FD
S11321A023E0184B1B78DBB2013BDAB2154B1A70F3
S11321B0FC1D154B984703002370FB1D1B785BB275
S11321C0002B00D111E0114A1149124B1800124B97
S11321D09847FB1D00229A56104B110018000E4B15
S11321E098470D200E4B9847E2E7064B1B78DBB26D
S11321F0002BD6D1FB1D1B785BB21800BD4603B083
S113220090BDC046A3000020811D000043020000D1
S113221074C8000000C60000B5B000005CC7000030
S1132220E9B0000090B589B000AFF860B96019005A
S1132230BB1D1A807B1D0A1C1A701F23FB18002269
S11322401A70FB68002B06D0BB68002B03D0BB1DA3
S11322501B88002B1FD17B1D1B78002B09D05F4BE3
S113226001221A701F23FC185D4B9847030023704A
S1132270ACE01F23FB18F4221A705A4A5A495B4BEC
S113228018005B4B98475B4B18005B4B98470D203D
S11322905A4B98479AE01F23FC181423FB18584AFA
S11322A019001000574B9847030023701F23FB1895
S11322B01B785BB2002B00D083E07B699B089AB249
S11322C01C23FB181205120D1A801F23FC18182357
S11322D0FB184D4A190010004A4B9847030023701D
S11322E01F23FB181B785BB2002B00D06BE0BA1DD8
S11322F01C23FB1812881B889A4216D91F23FB182B
S1132300F4221A70414A3849384B1800384B984720
S1132310BB1D19881C23FB181A883D4B1800344B2D
S113232098470D20354B984750E0BB69FA689A42AC
S11323300AD3BB1D1A88FB68D2181C23FB18198802
S1132340BB69CB189A4212D91F23FB18F4221A70C6
S1132350A0239A002449254B1800254B98472D4B60
S11323601800254B98470D20244B98472EE0BB1DA1
S11323701A881F23FC18B968FB681800264B984775
S1132380030023701F23FB181B785BB2002B1CD1A6
S11323901C23FB181A88BB69D218BB1D1988FB685B
S11323A0CB189A4203D07B1D1B78002B0ED00B4B0D
S11323B001221A701F23FC18094B9847030023704D
S11323C004E0C04602E0C04600E0C0461F23FB18FC
S11323D01B785BB21800BD4609B090BDA200002076
S11323E0F11700006902000084C8000000C6000064
S11323F0B5B000008CC70000D5B10000E9B0000002
S113240070100000DD360000841000007A02000025
S1132410ACC70000F0C700005137000080B584B09D
S113242000AF02003960FB1D1A700F23FB18002255
S11324301A70FB1D1B78072B1CD89A001C4BD31851
S11324401B689F461B4B3A681A6028E01A4B3A688F
S11324501A6024E0194B3A681A6020E0184B3A6875
S11324601A601CE0174B3A681A6018E0164B3A6879
S11324701A6014E0154A1649164B1800164B984773
S1132480FB1D1A78154B11001800134B98470D20AB
S1132490134B98470F23FB18F4221A70C0460F23DE
S11324A0FB181B785BB21800BD4604B080BDC04663
S11324B040C80000A8000020A4000020AC000020B8
S11324C0B4000020B8000020B0000020B9020000D1
S11324D090C8000000C60000B5B0000034C8000079
S11324E0E9B0000090B5ADB002AF3A60FB1D021C2C
S11324F01A703B1D0A1C1A80FB1D1B782C2B16D14D
S11325009C23F918386800230422CC4CA047031EEE
S113251000D0B6E1CA4B1B68002B00D1B1E1C84B17
S11325201B689C22BA1811002C209847A9E1FB1DB6
S11325301B781B2B16D19423F91838680023082222
S1132540BE4CA047031E00D09BE1BD4B1B68002B73
S113255000D196E1BA4B1B689422BA1811001B20D3
S113256098478EE1FB1D1B78062B16D10C23F91816
S1132570386801233022B14CA047031E00D080E10B
S1132580AF4B1B68002B00D17BE1AD4B1B680C22C9
S1132590BA1811000620984773E1FB1D1B780E2B17
S11325A000D16EE1FB1D1B78322B16D18423F91860
S11325B0386800231022A14CA047031E00D060E11C
S11325C09F4B1B68002B00D15BE19D4B1B68842251
S11325D0BA1811003220984753E1FB1D1B782F2BAA
S11325E01DD10C23FB18642200211800954B984739
S11325F00C23F918386800236422904CA047031E6A
S113260000D03EE18E4B1B68002B00D139E18C4B8E
S11326101B680C22BA1811002F20984731E1FB1DCA
S11326201B78342B3AD18023F9183868002304220C
S1132630824CA047031E00D023E1834B1800834B38
S113264098478023FB181B681A00FF231A401100C7
S11326508023FB181B681B0A1A00FF231A408023DF
S1132660FB181B681B0C1800FF2318400400802370
S1132670FB181B681B0E764800932300734CA0477D
S11326800D20744B98476E4B1B68002B00D1F8E06B
S11326906B4B1B68002134209847F2E0FB1D1B782C
S11326A0112B1ED16C4B00221A707C23F918386848
S11326B000230422614CA047031E00D0E1E07C23E8
S11326C0FB181A78654B1A705D4B1B68002B00D100
S11326D0D7E05B4B1B687C22BA1811001120984785
S11326E0CFE0FB1D1B78132B16D10C23F918386887
S11326F000232C22514CA047031E00D0C1E0504BB4
S11327001B68002B00D1BCE04D4B1B680C22BA188F
S1132710110013209847B4E0FB1D1B78042B16D13D
S1132720A023F918386800230422444CA047031E50
S113273000D0A6E0424B1B68002B00D1A1E0404B27
S11327401B68A022BA1811000420984799E0FB1DC9
S11327501B78652B16D1A023F918386800230422AE
S1132760364CA047031E00D08BE0354B1B68002B72
S113277000D186E0324B1B68A022BA1811006520F4
S113278098477EE0FB1D1B78092B16D10C23F91802
S1132790386801236422294CA047031E00D070E04E
S11327A0274B1B68002B00D16BE0254B1B680C22C8
S11327B0BA1811000920984763E0FB1D1B782A2BE7
S11327C014D17823F9183868012304221B4CA0473C
S11327D0031E56D11A4B1B68002B52D0184B1B6892
S11327E07822BA1811002A2098474AE0FB1D1B786A
S11327F0202B35D17023F9183868002308220F4C98
S1132800A047031E3DD13B68083318007023FB1812
S113281019687023FB189A880123084CA047031EEB
S11328202FD1074B1B68002B2BD0054B1B68702244
S1132830BA1811002020984723E0C0462522000042
S1132840C000002011160000A0C80000B5B00000B0
S1132850ACC80000E9B00000BD000020BC000020AE
S113286092235A0009490A4B18000A4B9847FB1D4A
S11328701A78094B11001800064B98470D20074B96
S11328809847C046BD462BB090BDC046C4CB00009F
S1132890CCC80000B5B00000E0C80000E9B00000FA
S11328A090B58DB000AF78602F23FB1800221A700A
S11328B00B23FB1801221A707B68002B04D12F23F1
S11328C0FB18F4221A7085E07B681A68454B1A607D
S11328D0454B00221A702F23FC180B23FB181800F9
S11328E0424B9847030023702F23FB181B785BB2DD
S11328F0002B6CD12F23FC1800203D4B984703007C
S113290023702F23FB181B785BB2002B5AD1394B51
S113291019000120384B98472F23FC180C23FB186F
S11329201800364B984703002370354B1800354B7D
S113293098470C23FB181B7919000C23FB185B79AF
S11329401A000C23FB189B792F482E4CA0470D200E
S11329502E4B98472A4B18002A4B98470C23FB18F8
S1132960DB7919000C23FB181B7A1A000C23FB18C3
S11329705B7A2748234CA0470D20244B9847204BD3
S11329801800204B984723480023032213211D4C91
S1132990A0470D201D4B98472F23FB181B785BB2D3
S11329A00D3316D1D023FF331A001B491B4B1800DB
S11329B0144B98471A4B18001A4B98470D20134B89
S11329C0984706E0C0460020174B984702E0C046EF
S11329D000E0C0462F23FB181B785BB21800BD46ED
S11329E00DB090BDC0000020BD0000207D3A000065
S11329F0DD190000E52400001D2400001539000045
S1132A00A0C80000B5B0000008CA0000E9B000008A
S1132A1024CA000040CA0000D0CB0000CCC800008B
S1132A205CCA0000D5B100000D3C000080B582B046
S1132A3000AF7860034B984703001800BD4602B00E
S1132A4080BDC0469521000090B587B002AFF86004
S1132A50080011007B600B23FB18021C1A700A2368
S1132A60FB180A1C1A707C680A23FB181A780B23BB
S1132A70FB181978F868002301932023FB181B889E
S1132A8000932300034CA04703001800BD4605B083
S1132A9090BDC046992A0000B0B5AAB004AFF86052
S1132AA0080011007B600B23FB18021C1A700A2318
S1132AB0FB180A1C1A709723FB1800221A700A23A9
S1132AC0FB181B78012B00D185E07B68002B13D108
S1132AD0FE23FF331A00D849D84B1800D84B984727
S1132AE0D84B1800D84B98470D20D84B98479723BC
S1132AF0FB18F4221A70EDE10A23FB181B78022B51
S1132B0069D17B681800D24B9847031E402B62D1D1
S1132B109623FB1800221A707B689022BA1813605F
S1132B2054E09623FB181B789022BA181268D31825
S1132B301B782F2B31D99623FB181B789022BA18B7
S1132B401268D3181B78392B09D99623FB181B78E4
S1132B509022BA181268D3181B78402B1DD99623DB
S1132B60FB181B789022BA181268D3181B78462BCE
S1132B7009D99623FB181B789022BA181268D31827
S1132B801B78602B09D99623FB181B789022BA185E
S1132B901268D3181B78662B11D9AE4AA649A74BE5
S1132BA01800A74B9847AC4B1800A74B98470D202B
S1132BB0A64B98479723FB18F4221A708AE19623B0
S1132BC0FB181A789623FB1801321A709623FB1807
S1132BD01B783F2BA5D90B23FB181B78002B04D0A3
S1132BE00B23FB181B78202B11D99C4A9249934B39
S1132BF01800934B98479A4B1800934B98470D2015
S1132C00924B98479723FB18F4221A7062E1A82389
S1132C10FB181B880D2B17D9A823FB181B88FF2B27
S1132C2012D087239A008449844B1800844B984718
S1132C308C4B1800844B98470D20844B984797235E
S1132C40FB18F4221A7045E10B23FB181A78F96873
S1132C501423FB1846331800834B98470B23FB18A7
S1132C601B781422BA184621D3185B1800221A7054
S1132C701423FB18A822BA18442112885A52AC23F0
S1132C80FB181B785A1E9341DBB219001423FB185E
S1132C90672299541423FB188C22BA1813608C23CE
S1132CA0FB181B680A22BA18412112785A540A23C5
S1132CB0FB181B78032B00D07AE07B688822BA18B3
S1132CC013608C23FB181B688422BA1813608823B2
S1132CD0FB181B681B78013BDAB28423FB181B68C2
S1132CE01A708423FB181B681B78032B17D95F4ABF
S1132CF05149524B1800524B98478423FB181B68C8
S1132D001B781A005A4B110018004D4B98470D20A0
S1132D104E4B98479723FB18F4221A70DAE0882365
S1132D20FB181B685B78013BDAB28423FB181B6831
S1132D305A708423FB181B685B780A2B1DD08423EC
S1132D40FB181B685B781A2B17D04A4A3A493B4B4D
S1132D5018003B4B98478423FB181B685B781A00C8
S1132D60454B11001800364B98470D20374B9847B8
S1132D709723FB18F4221A70ACE08423FB181B6819
S1132D80981C8823FB181B68991C8823FB181B6854
S1132D905B781A00344B98478823FB181B685B78D0
S1132DA01A008423FB181B689B1800229A7080E089
S1132DB00A23FB181B78022B30D18223FC187B6872
S1132DC01800234B9847030023808223FB181B8899
S1132DD0002B04D08223FB181B88402B11D9274ACF
S1132DE01549164B1800164B9847254B1800164BDF
S1132DF098470D20154B98479723FB18F4221A7017
S1132E0068E08C23FB1818688223FB181B880133A5
S1132E101A007B681900144B98474AE00A23FB18F0
S1132E201B78042B2ED18C23FB181B6879683E2257
S1132E3018000D4B98473CE0E0CB0000CCC80000E4
S1132E40B5B0000078CA0000D5B10000E9B00000B8
S1132E5051160000090200008CCA00001302000091
S1132E6098CA0000ACCA0000D51500003302000067
S1132E70B8CA00003A020000D4CA000049020000A7
S1132E80F0CA00000A23FB181B78012B11D0154A45
S1132E901549164B1800164B9847164B1800164B3D
S1132EA098470D20154B98479723FB18F4221A7066
S1132EB010E09723FC181423FA180023029300232C
S1132EC00193002300936C23282101200C4DA84773
S1132ED0030023709723FB181B785BB21800BD46D0
S1132EE026B0B0BD59020000E0CB0000CCC8000001
S1132EF0B5B000000CCB0000D5B10000E9B0000073
S1132F00451A000080B500AF00231800BD4680BDFF
S1132F1090B587B000AF78601723FB1800221A70B1
S1132F207B683B613A69A5235B0111001800134BD0
S1132F3098473B69002B18D00023FB601723FC182B
S1132F400C23FA18A5235B01110018000C4B9847B9
S1132F50030023701723FB181B785BB2002BE1D10D
S1132F60FA683B699A4202D0DCE7C04600E0C046FA
S1132F7000231800BD4607B090BDC04601370000CD
S1132F80DD36000090B585B000AF0F23FB1800229A
S1132F901A700023BB600120644B98470F23FC1870
S1132FA03B1D19000120624B9847030023700F2337
S1132FB0FB181B785BB2002B0DD05E495E4B72226E
S1132FC018005E4B98475E4B18005E4B98470D20E7
S1132FD05D4B9847A1E07B6802221343190001204E
S1132FE05A4B98470120514B9847594B1B680F2265
S1132FF0BC183A00110018004D4B98470300237089
S11330000F23FB181B785BB2002B08D10F23FB188E
S11330101B785BB2002B62D13B68002B5FD14C4B19
S11330200E221A600120414B9847494B1B680F221E
S1133030BC183A00110018003D4B98470300237058
S11330400F23FB181B785BB2002B08D10F23FB184E
S11330501B785BB2002B42D13B68002B3FD13C4B29
S113306013221A600120314B9847394B1B680F22F9
S1133070BC183A00110018002D4B98470300237028
S11330800F23FB181B785BB2002B28D029492A4B4D
S113309096221800294B98472E4B1800294B984725
S11330A00D20294B984738E00220204B9847284BA5
S11330B01B683A00110018001D4B98473B68042216
S11330C013400CD11B491C4BAA2218001B4B9847D8
S11330D0214B18001B4B98470D201B4B98473B680E
S11330E00422134009D1BB680133BB60BA681B4B8F
S11330F00321100098470B1ED6D03B6804221340CE
S113310006D17B6802221343190001200F4B984714
S11331103B680422134000D15DE70F23FB181B78A2
S11331205BB21800BD4605B090BDC0466D0D0000F1
S1133130DD3600001CCD0000F4CB0000B5B000006B
S113314008CC0000D5B10000E9B000000137000050
S11331501400002028CC000048CC0000E1AF00009F
S113316090B583B000AFFC1D3B00294A1900100044
S1133170284B984703002370FB1D1B785BB2002B80
S113318002D006235B423FE03B6880225200134397
S11331903B603B68FC1D1E4A190010001E4B9847FB
S11331A003002370FB1D1B785BB2002B02D00623A7
S11331B05B4229E0FC1D3A00D0235B01110018009A
S11331C0144B984703002370FB1D1B785BB2002B44
S11331D002D006235B4217E03B688022520213436D
S11331E03B603A68FC1DD0235B01110018000A4BB8
S11331F0984703002370FB1D1B785BB2002B02D0A1
S113320006235B4200E000231800BD4603B090BDD6
S113321008140000DD3600000137000080B582B0DC
S113322000AF324B1B68002B59D1304A80235B011D
S1133230110018002E4B9847031E04D02B4B00227C
S11332401A6000234DE03B1D2A4A19001000284B48
S11332509847031E04D0254B00221A60002340E047
S1133260224B1B68244A934206D17B68012B29D048
S11332701E4B224A1A6025E01C4B1B68204A9342CD
S11332800DD17B68032B1DD07B68042B03D1174B16
S11332901C4A1A6016E0154B1B4A1A6012E0134BC5
S11332A01B681A4A93420DD1104AEC239B03110068
S11332B018000F4B9847031E04D00C4B00221A60D1
S11332C000230EE0094B1B68114A1A40074B1A6091
S11332D0064B1B68A022D2021A43044B1A60034B0C
S11332E01B681800BD4602B080BDC046C400002063
S11332F0DD360000F4130000A0021000A10210004B
S1133300B0021000B1021000B2021000F000100070
S1133310FFFFF0FF80B586B000AF0200FB1D1A70FE
S11333200B23FB1800221A7000237B6100233B61EE
S11333300023FB6000237B613B4B18003B4B984709
S113334003007B617B69002B03DB0120384B98472A
S1133350F2E7C046374B1800344B984703007B61B3
S11333607B69012213407B617B69002B12D100230E
S11333707B610BE001202E4B98472F4B18002B4B01
S1133380984703007B613B6901333B617B692B4AAE
S11333909342EFD1FB1D1B78022B0DD1284A294BF8
S11333A011001800284B984780235B03274A190013
S11333B01000254B984715E0FB1D1B78032B0BD100
S11333C01F4A204B110018001F4B98471F4B002128
S11333D018001D4B984705E0FB1D1B78042B01D1F9
S11333E08023FB601A4B984703001B051A0DE82342
S11333F09B009A4206D1FB68022213431800154B26
S1133400984703E0FB681800124B9847124A0A4B8E
S1133410110018000C4B98470B23FB181B785BB268
S11334201800BD4606B080BD14100000BD36000073
S11334306D0D0000BC0702000C000C009ED0AD1006
S11334407DD51C3CAC070200013700008C10000045
S11334501D320000112F0000612F52EF80B588B09B
S113346000AF0200FB1D1A701F23FB1800221A7004
S11334700023BB6100237B6101235B423B611D4B45
S1133480FB601D4BBB60FB1D1B78022B03D0FB1D97
S11334901B78032B19D1194BFB60194BBB6014E04B
S11334A00220184B9847FB681800174B98470300F5
S11334B0BB617B6901337B617A693B699A4204D3BE
S11334C01F23FB18FB221A700CE0BA68BB699A42EE
S11334D0E6D1BB68084A934204D1064B0021180088
S11334E00A4B98471F23FB181B785BB21800BD4694
S11334F008B080BD8C10000036265302AC070200D1
S1133500C3C15DD76D0D0000BD360000013700005A
S113351090B583B000AF00233B60BB1D0A221A7034
S1133520FC1D3A00A0235B01110018003F4B984793
S113353003002370FB1D1B785BB2002B0CD03C4AAC
S11335403C493D4B18003D4B98473D4B18003D4BC3
S113355098470D203C4B98473B683C4A13403B60DE
S11335603A68FC1DA0235B0111001800384B9847F2
S113357003002370FB1D1B785BB2002B10D0354A6F
S11335802C492D4B18002D4B9847334B18002D4BCD
S113359098470D202C4B9847FB1D1B785BB241E0EC
S11335A0FC1D3A00A0235B01110018001F4B984733
S11335B003002370FB1D1B785BB2002B11D08F23FB
S11335C09A001C491C4B18001C4B9847234B1800AD
S11335D01C4B98470D201C4B9847FB1D1B785BB276
S11335E020E03A688023DB00134017D03B68174A79
S11335F013403B603A68FC1DA0235B0111001800D6
S1133600134B984703002370BB1D1A78BB1D013A66
S11336101A70BB1D1B78002BC2D100E0C046FB1DF5
S11336201B785BB21800BD4603B090BDDD360000C8
S11336302F0200002CCD0000F4CB0000B5B0000038
S113364094CC0000D5B10000E9B00000FFFBFFFFFF
S11336500137000035020000ACCC0000C4CC0000EF
S113366090B585B000AF78600F23FB1800221A7064
S11336700F23FC187B681800054B98470300237040
S11336800F23FB181B785BB21800BD4605B090BD34
S11336901914000090B583B000AFFB1D00221A700E
S11336A0FC1D054B984703002370FB1D1B785BB280
S11336B01800BD4603B090BD9115000080B582B0DE
S11336C000AF78607B681800034B9847030018002C
S11336D0BD4602B080BDC046554D000080B582B0E5
S11336E000AF786039603A687B6811001800034BBA
S11336F0984703001800BD4602B080BD794D000014
S113370080B582B000AF786039603A687B68110098
S11337101800034B984703001800BD4602B080BD53
S1133720C94D000080B584B000AFF860B960BB1D1E
S11337301A80BB1D1A88B968FB681800034B9847A8
S113374003001800BD4604B080BDC046194E0000F9
S113375080B586B000AFF860B9607A602D4B1A88E6
S11337601023FB18083A1A8000237B611323FB18EB
S113377000221A701023FB181A887B689A4213D30C
S1133780BA687B69D1187B689AB2FB681800224B2F
S113379098470300DAB21323FB181B78D318DAB264
S11337A01323FB181A702DE0BA687B69D118102313
S11337B0FB181A88FB681800174B98470300DAB205
S11337C01323FB181B78D318DAB21323FB181A70CF
S11337D01323FB181B785BB2002B12D11023FB18A8
S11337E01B887A68D31A7B601023FB181B887A69BC
S11337F0D3187B611023FB181B88FA68D318FB606D
S1133800B8E7C0461323FB181B785BB21800BD460B
S113381006B080BD100000202537000080B584B0BC
S113382000AFF860B960BB1D1A80BB1D1A88B96867
S1133830FB681800034B984703001800BD4604B00A
S113384080BDC046714E000080B586B000AFF86000
S1133850B9607A602D4B1A881023FB18083A1A8035
S113386000237B611323FB1800221A701023FB181A
S11338701A887B689A4213D3BA687B69D1187B682B
S11338809AB2FB681800224B98470300DAB213235C
S1133890FB181B78D318DAB21323FB181A702DE027
S11338A0BA687B69D1181023FB181A88FB681800C2
S11338B0174B98470300DAB21323FB181B78D3186D
S11338C0DAB21323FB181A701323FB181B785BB2AC
S11338D0002B12D11023FB181B887A68D31A7B6043
S11338E01023FB181B887A69D3187B611023FB18FB
S11338F01B88FA68D318FB60B8E7C0461323FB188B
S11339001B785BB21800BD4606B080BD10000020D5
S11339101D38000090B587B000AF78600023FB60CD
S11339201723FB1800221A701723FC180C23FB180A
S11339304C4A190010004C4B984703002370FB6855
S11339404A4A93420AD11723FC180C23FB18484A0D
S113395019001000444B984703002370FB681B0CAC
S11339601B12DAB27B68DA71FB681B0C1B11DBB229
S11339700F221340DAB27B681A72FB681B0CDBB2AD
S11339800F221340DAB27B685A72FB681B12DAB258
S11339907B681A71FB681B11DBB20F221340DAB289
S11339A07B685A71FB68DBB20F221340DAB27B6882
S11339B09A71304B984702007B681A607B681B79C8
S11339C01B021AB27B685B791B011BB2FF210B40FF
S11339D01BB213431AB27B689B791BB20F210B40B5
S11339E01BB213431AB21423FB181A801223FB18B8
S11339F0214A1A807B68DB791B021AB27B681B7A26
S1133A001B011BB2FF210B401BB213431AB27B688C
S1133A105B7A1BB20F210B401BB213431AB2102363
S1133A20FB181A801223FA181023FB1812881B881B
S1133A309A4203D21723FB18F3221A701223FA189E
S1133A401423FB1812881B889A4203D91723FB18E6
S1133A50F3221A701723FB181B785BB21800BD46BB
S1133A6007B090BDAC070200DD360000C3C15DD7CE
S1133A70481000001D3200003013000090B585B0DE
S1133A8000AF78600F23FB1800221A707B68002BAC
S1133A9013D00E23FB187A6812781A700E23FB18C1
S1133AA01B78002B04D00E23FB181B78042B08D999
S1133AB00E23FB1801221A7003E00E23FB180122C7
S1133AC01A700F23FC180020404B98470300237002
S1133AD00F23FB181B785BB2002B0ED092235A00E5
S1133AE03B493C4B18003C4B98473C4B18003C4B23
S1133AF098470D203B4B98475FE03B4B1800364BF3
S1133B0098473A4B98470200394B11001800324B42
S1133B1098470D20334B9847364B98470F23FC1892
S1133B200E23FB181B781800334B984703002370AF
S1133B300F23FB181B785BB2002B39D10F23FC1821
S1133B400E23FB181B7818002C4B98470300237096
S1133B500F23FB181B785BB2002B2BD10E23FB1811
S1133B601B78022B29D00E23FB181B78032B24D09F
S1133B700F23FC18224B9847030023700F23FB18D4
S1133B801B785BB2002B0ED0AE235A001049114BA8
S1133B901800114B98471B4B1800114B98470D20E8
S1133BA0104B984707E00F23FB181B785BB208E023
S1133BB0C04600E0C046144B98470F23FB181B78FF
S1133BC05BB21800BD4605B090BDC046613600002A
S1133BD004CE000038CD0000B5B000004CCD00008C
S1133BE0D5B10000E9B0000068CD00001D3200002E
S1133BF074CD0000F54B0000153300005D34000067
S1133C006131000084CD00009536000090B585B088
S1133C1000AF78600F23FC182D4B984703002370E6
S1133C200F23FB181B785BB2002B0ED0BA235A006B
S1133C302849294B1800294B9847294B1800294B30
S1133C4098470D20284B98473AE00F23FC18002092
S1133C50264B9847030023700F23FB181B785BB295
S1133C60002B0FD07C23FF331A001A491A4B18007B
S1133C701A4B98471E4B18001A4B98470D201A4BA5
S1133C8098471DE00F23FC181A4B98470300237034
S1133C900F23FB181B785BB2002B0FD08223FF335A
S1133CA01A000C490C4B18000C4B9847124B180087
S1133CB00C4B98470D200C4B984701E00F4B98474D
S1133CC00F23FB181B785BB21800BD4605B090BDEE
S1133CD01135000010CE000038CD0000B5B0000052
S1133CE0A4CD0000D5B10000E9B00000095E0000D9
S1133CF0C4CD000095360000E8CD00003D4D000025
S1133D0080B586B000AF78600A00BB1C1A800C2313
S1133D10FB1800221A600C23FB187A685A600C23E3
S1133D20FB18BA1C12881A810C23FB1819000320F3
S1133D30034B984703001800BD4606B080BDC0463B
S1133D400115000080B586B000AF78600A00BB1C86
S1133D501A800C23FB187A681A600C23FB180022C3
S1133D605A600C23FB18BA1C12881A810C23FB1806
S1133D7019000320034B984703001800BD4606B002
S1133D8080BDC0460115000080B582B000AF0200BE
S1133D90FB1D1A70BB1D0A1C1A70FB1D1B785A00F0
S1133DA0BB1D1B785340034AD35C1800BD4602B0C8
S1133DB080BDC04620CE000090B585B000AFB9608C
S1133DC07A600F23FB18021C1A700EE0BB685A1CA1
S1133DD0BA601A780F23FC180F23FB181B78110004
S1133DE01800084B9847030023707B685A1E7A60BA
S1133DF0002BEBD10F23FB181B781800BD4605B030
S1133E0090BDC046893D000090B589B000AFB9604F
S1133E107A603B600F23FB18021C1A701F23FB18E7
S1133E2005221A701E23FB1801221A701423FB1892
S1133E300F22BA1812781A700F23FB181B78C13B93
S1133E400E2B00D91BE19A00B64BD3181B689F4672
S1133E50BB681B0CDAB21423FB185A70BB681B0A2C
S1133E60DAB21423FB189A70BB68DAB21423FB1875
S1133E70DA701F23FB1805221A7005E1BB681B0AC0
S1133E80DAB21423FB185A703023FB181B78002B6A
S1133E9009D01423FB185B78802252421343DAB210
S1133EA01423FB185A70BB68DAB21423FB189A70F7
S1133EB01423FB180022DA701F23FB1805221A7042
S1133EC0E2E01423FB1800225A701423FB1800228A
S1133ED09A701423FB180022DA701F23FB180522A2
S1133EE01A70D1E01423FB1800225A701423FB1813
S1133EF000229A701423FB180022DA701F23FB1887
S1133F0005221A70C0E01423FB18FF225A701423F0
S1133F10FB18FF229A701423FB18FF22DA701F2368
S1133F20FB1805221A70AFE0BB681B0CDAB214232D
S1133F30FB185A70BB681B0ADAB21423FB189A7078
S1133F40BB68DAB21423FB18DA703B681B0ADAB2D6
S1133F501423FB181A713B68DAB21423FB185A7144
S1133F601F23FB1807221A708EE0BB681B0CDAB201
S1133F701423FB185A70BB681B0ADAB21423FB180B
S1133F809A70BB68DAB21423FB18DA703B681B0C16
S1133F90DAB21423FB181A713B681B0ADAB2142331
S1133FA0FB185A713B68DAB21423FB189A711F2369
S1133FB0FB1808221A7067E0BB681B0ADAB21423E4
S1133FC0FB185A703023FB181B78002B09D01423DC
S1133FD0FB185B78802252421343DAB21423FB1895
S1133FE05A70BB68DAB21423FB189A707B681B0EF4
S1133FF0DAB21423FB18DA707B681B0CDAB21423D0
S1134000FB181A717B681B0ADAB21423FB185A7165
S11340107B68DAB21423FB189A711F23FB18082259
S11340201A7031E0BB681B0CDAB21423FB185A7007
S1134030BB681B0ADAB21423FB189A70BB68DAB2A5
S11340401423FB18DA707B681B0EDAB21423FB18F6
S11340501A717B681B0CDAB21423FB185A717B6843
S11340601B0ADAB21423FB189A717B68DAB21423A0
S1134070FB18DA711F23FB1809221A7004E01E23AF
S1134080FB1800221A70C0461E23FB181B785BB273
S1134090002B3ED0244B1B78002B15D11F23FB187B
S11340A01B785C1E1F23FB181B78013B1A0014238A
S11340B0FB1819007F201D4B98470300DB18DAB268
S11340C01423FB181A5506E01F23FB181F22BA18E5
S11340D01278013A1A701F23FB181B789AB2142322
S11340E0FB1811001800124B9847031E11D08423AB
S11340F05A001049104B1800104B9847104B1800E9
S1134100104B98470D20104B98471E23FB18002294
S11341101A701E23FB181B785BB21800BD4609B049
S113412090BDC046D8D30000C8000020B93D0000AF
S1134130453D000014D4000020CF0000B5B00000BD
S113414034CF0000D5B10000E9B0000080B584B0E0
S113415000AF0200FB1D1A700F23FB1801221A7016
S1134160FB1D1B78CF2B07D0FB1D1B78C52B03D061
S1134170FB1D1B78C62B0CD10D23FB180121180045
S11341803A4B9847031E04D00F23FB1800221A70E1
S113419063E00E23FB180A221A700D23FB18012179
S11341A01800324B9847031E13D02823FF331A00FC
S11341B02F49304B1800304B9847304B1800304B88
S11341C098470D202F4B98470F23FB1800221A7095
S11341D043E00D23FB181B78FA1D12789A420BD08A
S11341E00E23FB181B785BB2DAB2013AD1B20E226D
S11341F0BA181170002BD0DC0E23FB180A221A7097
S11342000D23FB1801211800184B9847031E13D0E7
S11342103623FF331A001649164B1800164B9847DD
S1134220164B1800164B98470D20164B98470F2332
S1134230FB1800221A7010E00D23FB181B78002BCA
S11342400BD00E23FB181B785BB2DAB2013AD1B261
S11342500E22BA181170002BD2DC0F23FB181B7826
S11342605BB21800BD4604B080BDC046013D0000ED
S11342701CD4000020CF0000B5B0000060CF0000C7
S1134280D5B10000E9B0000080B586B000AF786019
S113429008001100BB1C021C1A807B1C0A1C1A702B
S11342A01123FB1801221A701423FB1800221A8010
S11342B0BB1C1A8880239B019A4205D81223FB1841
S11342C0BA1C12881A8004E01223FB18802292017F
S11342D01A801623FB180A221A800B23FB180121CB
S11342E018005F4B9847031E13D05823FF331A005E
S11342F05C495D4B18005D4B98475D4B18005D4B66
S113430098470D205C4B98471123FB1800221A7024
S113431017E00B23FB181B781B09DBB21A000F23D1
S113432013400F2B0CD01623FB1800229B5E9AB26D
S1134330013A91B21622BA181180002BCDD100E0B7
S1134340C0461123FB181B785BB2002B00D17DE023
S11343501623FB1800229B5E002B18DC6423FF331A
S11343601A004049404B1800404B98470B23FB1858
S11343701B781A00414B110018003C4B98470D2044
S11343803D4B98471123FB1800221A705FE0142359
S1134390FB1800229B5E7A68D2181223FB181B8834
S11343A0190010002E4B9847031E12D0B6235A0052
S11343B02C492D4B18002D4B9847314B18002D4B91
S11343C098470D202C4B98471123FB1800221A7094
S11343D03DE07B1C1B78002B1FD12A4B1B78002B44
S11343E01BD10C23FB18022118001D4B9847031EF8
S11343F013D07823FF331A001A491B4B18001B4BA8
S11344009847214B18001B4B98470D201A4B98478F
S11344101123FB1800221A7019E01423FB181A88C0
S11344201223FB181B88D3189AB21423FB181A8082
S11344301223FB181A88BB1CB91C09888A1A1A8013
S1134440BB1C1B88002B00D032E700E0C0461123C0
S1134450FB181B785BB21800BD4606B080BDC04691
S1134460013D000028D4000020CF0000B5B00000BA
S113447094CF0000D5B10000E9B00000C8CF00001F
S1134480F8CF0000C800002028D0000080B586B016
S113449000AF78600A00BB1C1A801323FB180122AA
S11344A01A700C23FB1800221A801623FB18002212
S11344B01A80BB1C1A8880239B019A4205D81423B6
S11344C0FB18BA1C12881A8004E01423FB188022FB
S11344D092011A801123FB18F0221A701623FB187C
S11344E000229B5E002B0FD1BB1C1A8880239B01EA
S11344F09A4204D81223FB1803221A7013E01223E1
S1134500FB1801221A700EE0BB1C1A8880239B0141
S11345109A4204D81223FB1803221A7003E01223D0
S1134520FB1802221A701123FB181A781223FB18A5
S11345301B781343DAB21123FB181A701123FB18EA
S1134540012118003C4B9847031E12D0D4235A0073
S11345503A493B4B18003B4B98473B4B18003B4BAD
S113456098470D203A4B98471323FB1800221A70E2
S11345705AE01623FB1800229B5E7A68D218142393
S1134580FB181B88190010002B4B9847031E13D0EF
S1134590B223FF331A002949294B1800294B9847A5
S11345A02C4B1800294B98470D20294B984713236F
S11345B0FB1800221A7037E0274B1B78002B1BD105
S11345C00C23FB18022118001B4B9847031E13D021
S11345D0BC23FF331A001949194B1800194B98478B
S11345E01E4B1800194B98470D20194B984713235D
S11345F0FB1800221A7017E01623FB181A881423DC
S1134600FB181B88D3189AB21623FB181A80BB1CFC
S1134610B91C1422BA18098812888A1A1A80BB1C79
S11346201B88002B00D044E71323FB181B785BB2D4
S11346301800BD4606B080BD453D000038D40000DA
S113464020CF0000B5B000005CD00000D5B1000060
S1134650E9B0000094D00000C8000020C8D00000D9
S1134660B0B586B002AF786039600D23FB18012223
S11346701A700F23FB18C9221A700E23FB1800228C
S11346801A707B68302B08D80F23FB18C3221A70CA
S11346900E23FB1801221A7007E00F23FB18C9220E
S11346A01A700E23FB1800221A700D23FC183A68A6
S11346B079680F23FB1818780E23FB181B780093D6
S11346C00423264DA847030023700D23FB181B78F1
S11346D05BB2012B12D0EC23FF331A002049214B8B
S11346E01800214B98477A68204B110018001E4B84
S11346F098470D201E4B984700232BE00D23FC18F0
S11347000F23FB181B7818001A4B984703002370DB
S11347100D23FB181B785BB2012B1AD0F223FF3355
S11347201A000F490F4B18000F4B98477A68124B29
S1134730110018000C4B98470D200D4B984700238F
S11347400093002300220021CF20044CA047002323
S113475000E001231800BD4604B0B0BD093E0000CE
S113476048D4000020CF0000B5B0000000D1000004
S1134770E9B000004D4100002CD10000B0B588B074
S113478002AFF860B960BB1D1A801723FB18C7225B
S11347901A70BB1D1A881623FC18F9681723FB1816
S11347A018780023009313000022374DA847030014
S11347B023701623FB181B785BB2012B10D0334AED
S11347C03349344B1800344B9847FA68334B110083
S11347D01800314B98470D20314B984700234FE088
S11347E01623FC181723FB181B7818002D4B984729
S11347F0030023701623FB181B785BB2012B18D01F
S1134800294A2349234B1800234B9847FA68274B1E
S113481011001800204B98470D20214B9847002386
S11348200093002300220021CF20174CA04700232F
S113483026E01623FC18BB1D1A88BB68110018005B
S11348401B4B9847030023701623FB181B785BB29D
S1134850012B14D0174A0E490E4B18000E4B9847E3
S1134860154B1800154B98470D200D4B9847002306
S11348700093002300220021CF20034CA0470123F2
S11348801800BD4606B0B0BD093E00000F0200008E
S113489058D4000020CF0000B5B0000064D100005F
S11348A0E9B000004D4100001502000094D1000061
S11348B08D44000026020000CCD10000D5B10000D8
S11348C0B0B586B002AF786039600D23FB180122C1
S11348D01A700F23FB18CA221A700E23FB18002229
S11348E01A707B68FF2B08D80F23FB18C4221A7098
S11348F00E23FB1801221A7007E00F23FB18CA22AB
S11349001A700E23FB1800221A700D23FC18796804
S11349100F23FB1818780E23FB181B78009304232D
S11349200022444DA847030023700D23FB181B7875
S11349305BB2012B10D0404A4049414B1800414B17
S113494098477A68404B110018003E4B98470D2059
S11349503E4B9847002368E00D23FC180F23FB18F7
S11349601B7818003A4B9847030023700D23FB185B
S11349701B785BB2012B18D0364A3049304B1800F3
S1134980304B98477A68344B110018002D4B9847E8
S11349900D202E4B98470023009300230022002172
S11349A0CF20244CA04700233FE00D23FC180E2306
S11349B0FB181A780823FB1804211800274B984782
S11349C0030023700D23FB181B785BB2012B16D058
S11349D0234A1A491A4B18001A4B9847214B1800BE
S11349E0214B98470D20194B98470023009300232F
S11349F000220021CF200F4CA047002315E00823FC
S1134A00FB181B781A000823FB185B781B021A4357
S1134A100823FB189B781B041A430823FB18DB7834
S1134A201B061A433B681A6001231800BD4604B0F4
S1134A30B0BDC046093E00004502000068D4000035
S1134A4020CF0000B5B00000F4D10000E9B00000B0
S1134A504D4100004B02000020D2000089420000BA
S1134A605302000054D20000D5B10000B0B588B0A4
S1134A7002AFF860B960BB1D1A801723FB18C82267
S1134A801A70BB1D1A881623FC18F9681723FB1823
S1134A9018780023009313000022394DA84703001F
S1134AA023701623FB181B785BB2012B11D09D23B6
S1134AB09A003449344B1800344B9847FA68344B05
S1134AC011001800314B98470D20324B98470023B2
S1134AD052E01623FC181723FB181B7818002E4BE2
S1134AE09847030023701623FB181B785BB2012B35
S1134AF018D02A4A2349244B1800244B9847FA68B3
S1134B00274B11001800214B98470D20214B984743
S1134B1000230093002300220021CF20184CA0473B
S1134B20002329E01623FC18BB1D1988BB6800224A
S1134B3018001C4B9847030023701623FB181B789E
S1134B405BB2012B17D0A1239A000E490E4B18001B
S1134B500E4B9847144B1800144B98470D200D4BDF
S1134B60984700230093002300220021CF20044C07
S1134B70A047002300E001231800BD4606B0B0BDE5
S1134B80093E000078D4000020CF0000B5B000003A
S1134B9074D20000E9B000004D4100007A02000028
S1134BA0A4D2000089420000DCD20000D5B100008C
S1134BB080B582B000AF0C4B18000C4B9847030033
S1134BC07B607B68702293437B607B685022134335
S1134BD07B60C0467B68044A19001000044B984768
S1134BE0C046BD4602B080BD24E80000554D00001B
S1134BF0C94D000080B582B000AF00233B603F4B3D
S1134C0000221A703B003E4A190010003D4B9847A1
S1134C10031E27D1394B01221A703B4A3B493C4BB6
S1134C2018003C4B98473C4B18003C4B98470D20D0
S1134C303B4B98473B00324A19001000314B9847D0
S1134C40031E0FD1B2239A003049314B1800314B67
S1134C509847344B1800314B98470D20304B9847F8
S1134C60002346E0254B1B78002B25D13B680C2202
S1134C7093433B603B68702293433B603B68502204
S1134C8013433B603B681E4A19001000264B9847AB
S1134C90031E0ED1254A1D491D4B18001D4B984774
S1134CA0234B18001D4B98470D201D4B984700239C
S1134CB01FE0124B01221A703A1D80235B01110080
S1134CC01800104B9847031E10D1B7239A000F49C0
S1134CD00F4B18000F4B9847164B18000F4B984773
S1134CE00D200F4B984706235B4202E0124B984776
S1134CF000231800BD4602B080BDC046C800002095
S1134D0024E80000C1480000C502000084D400006B
S1134D1020CF0000B5B0000004D30000D5B10000DE
S1134D20E9B0000054D3000061460000D202000044
S1134D3080D30000B4D30000B14B000080B500AFB5
S1134D40034B00221A7000231800BD4680BDC046E4
S1134D50C800002080B584B000AF78600C23FA1836
S1134D607B6811001800034B9847FB681800BD4688
S1134D7004B080BDC148000090B585B000AF786034
S1134D8039600F23FC183A687B68110018000D4B3A
S1134D909847030023700F23FB181B785BB2012B89
S1134DA004D10F23FB1800221A7003E00F23FB1811
S1134DB0FA221A700F23FB181B785BB21800BD4649
S1134DC005B090BDC148000090B585B000AF7860D3
S1134DD039600F23FC183A687B68110018000D4BEA
S1134DE09847030023700F23FB181B785BB2012B39
S1134DF004D10F23FB1800221A7003E00F23FB18C1
S1134E00FA221A700F23FB181B785BB21800BD46F8
S1134E1005B090BD6146000090B587B000AFF86062
S1134E20B960BB1D1A801723FC18BB1D1A88B9680A
S1134E30FB6818000D4B9847030023701723FB18D9
S1134E401B785BB2012B04D11723FB1800221A70C4
S1134E5003E01723FB18FA221A701723FB181B7898
S1134E605BB21800BD4607B090BDC0466D4A000055
S1134E7090B587B000AFF860B960BB1D1A801723E6
S1134E80FC18BB1D1A88B968FB6818000D4B9847BD
S1134E90030023701723FB181B785BB2012B04D18A
S1134EA01723FB1800221A7003E01723FB18FA22B9
S1134EB01A701723FB181B785BB21800BD4607B0A5
S1134EC090BDC0467D47000090B589B000AFB96081
S1134ED011007B600F23FB18021C1A700E23FB18B1
S1134EE00A1C1A703023FB181B88002B00D1BFE06A
S1134EF00F23FB1800229A565F4B1201D358002B44
S1134F0000D1B5E00F23FB181B785BB25A4A1B0192
S1134F10D31804331B889BB2002B00D1A8E00F23C5
S1134F20FB181B785BB2544A1B01D3180A331B7855
S1134F30DBB2012B00D09BE07B68FB61BB683022B5
S1134F40BA181288DA801923FB1801221A701A235E
S1134F50FB183022BA1812881A800F23FB181B780A
S1134F605BB2454A1B01D31804331B889BB21A2237
S1134F70BA181288D31A9AB21623FB181A80162369
S1134F80FB1800229B5E002B0FDD1923FB18002267
S1134F901A700F23FB1800229A561A23FB1836495D
S1134FA012018A18043212881A800F23FB18002277
S1134FB09A56314B1201D1581923FB181C781A2325
S1134FC0FB181A88F86923002C4CA047031E38D11B
S1134FD00F23FB1800229A56274B1201D258BB68A4
S1134FE01A601A23FB1800229A5EBB689A80BB6879
S1134FF0DA881A23FB181B88D31A9AB2BB68DA80A2
S11350001F4B1B68002B0BD01D4B1B68BC680E226A
S1135010BA1811780F22BA180020105622009847A7
S11350203023F9183023FA181A23FB1812881B8826
S1135030D31A0B801A23FB181B88FA69D318FB6157
S113504010E0104B1800104B98473023FB181A88B7
S11350500E4B110018000C4B98470D200C4B984731
S1135060C04605E03023FB181B88002B00D06AE7FC
S1135070C046BD4609B090BD440200202522000070
S1135080F402002090D40000B5B000009CD40000CD
S1135090E9B0000090B5BBB002AF3A60FB1D021C42
S11350A01A703B1D0A1C1A80FB1D1B78412B20D152
S11350B0CC23F9183868002304228D4CA047031E22
S11350C000D064E2CC23FB1801229A56C823FB18B3
S11350D01A70884B1B68002B00D158E2854B1B6863
S11350E0CC22BA1800201056C822BA1801219847B9
S11350F04DE2FB1D1B78422B20D1C423F9183868DC
S1135100002304227A4CA047031E00D03FE2C423AC
S1135110FB1801229A56C023FB181A70754B1B68A2
S1135120002B00D133E2734B1B68C422BA18002051
S11351301056C022BA180221984728E2FB1D1B789A
S1135140432B6BD1B423F918386800230C22684C24
S1135150A047031E00D01AE2B423FB185B7A5BB2AB
S1135160002B34DBB423FB185B7A5BB2624A1B016D
S1135170D3180B3300221A70B423FB185B7A5BB28A
S11351805D4A1B01D3180A3301221A705B4B1B883A
S11351909BB201339AB2594B1A80584B1B889BB26D
S11351A0002B06D1554B1B889BB201339AB2534B4B
S11351B01A80B423FB185B7A5BB218004F4B1B8830
S11351C099B24D4A0301D31806330A1C1A80B4233A
S11351D0FB1809229A56A023FB181A70A023FB1867
S11351E002229A80B423FB185A88A023FB18DA8081
S11351F0B423FB185A68A023FB189A603D4B1B6824
S1135200002B00D1C3E13B4B1B68B422BA18082021
S11352101056A022BA1804219847B8E1FB1D1B7848
S1135220442B03D0FB1D1B784B2B3DD19C23F91839
S11352303868002304222E4CA047031E00D0A1E1AD
S11352409C23FB1800229A569823FB181A709C235F
S1135250FB1801229A569823FB185A709C23FB18BA
S11352605B785BB2002B0FD19C23FB181B785BB2DD
S113527018009C23FB185B88083B99B21E4A030163
S1135280D31808330A1C1A801A4B1B68002B00D150
S113529078E1184B1B689C22BA18002010569822FB
S11352A0BA18052198476DE1FB1D1B784A2B29D1BB
S11352B00C23F9183868002344220D4CA047031E20
S11352C000D064E10C23FB181A6C0C23FB181A643D
S11352D00B4B1B68002B00D159E1094B1A680C23B6
S11352E0FB18196C0C23FB18180090474FE1C046BB
S11352F025220000F402002044020020CA000020FD
S1135300FC020020FB1D1B78462B08D0FB1D1B78DC
S1135310482B04D0FB1D1B784D2B00D0B4E0DF23B9
S1135320FB1806221A70FB1D1B78482B03D1DF23C0
S1135330FB1809221A70D823FB1810221A80D823CC
S1135340FB181A888823F91838680023924CA04760
S1135350031E00D018E1D623FB1800221A80D5239F
S1135360FB188822BA18127B1A70D623FB188822DD
S1135370BA18D2891A80D523FB181B785BB2874AE6
S11353801B01D3180C3300221A70D223FB18882275
S1135390BA1812891A80D023FB188822BA185289A5
S11353A01A808823FB185A887023FB185A81882393
S11353B0FB185A687023FB18DA60D523FB181B7896
S11353C05BB2764A1B01D31806331B889BB2D622E4
S11353D0BA1812889A4248D1D223FB1800229B5E45
S11353E0002B25DDD223FB1800229A5E3B1D1B886F
S11353F09A421DDAD023FB181B883A68D3183B6005
S1135400D823FB18D222BA1812881A803C68DF23EA
S1135410FB181A787023F918D523FB1800201856A6
S1135420D823FB181B88009323005D4CA047ABE0F6
S11354307023FB18D222BA1812889A807023FB18A2
S113544000221A60574B1B68002B00D19CE0554B7F
S11354501B687022BC18DF22BA181178D522BA183A
S113546000201056220098478EE0D823FA183B1DDE
S113547012881B889A4200D386E00123002200216F
S11354800020454CA0477FE0FB1D1B78452B07D02F
S1135490FB1D1B78472B03D0FB1D1B784C2B4CD1D9
S11354A0DE23FB1807221A70FB1D1B78472B03D140
S11354B0DE23FB1808221A706423F91838680023C5
S11354C00822354CA047031E60D1DC23FB180022C0
S11354D01A80DB23FB186422BA1812781A70DC23B2
S11354E0FB186422BA1892881A806423FB180222DB
S11354F09A5E6E23FB181A80DB23FB181B785BB2C1
S1135500264A1B01D31806331B889BB2DC22BA1827
S113551012889A423AD1234B1B68002B36D0214B78
S11355201B686E22BC18DE22BA181178DB22BA1866
S1135530002010562200984728E0FB1D1B78522BB0
S113554025D15023F918386801231422124CA0479E
S1135550031E1CD15023FB185B681A00124B1A60FF
S1135560114B1B68002B12D00F4B1C685023FB18E7
S113557018685023FB1899685023FB181B7C1A00E9
S1135580A04704E0C04602E0C04600E0C046C04672
S1135590BD4639B090BDC04625220000440200201B
S11355A0C94E0000F4020020F802002080B500AFCC
S11355B00C4B1B78DBB2002B10D10B4BB02200211B
S11355C018000A4B98470A4B19000220094B9847C8
S11355D0044B01221A70084B00221A80C046BD46B3
S11355E080BDC046CC0000204402002011160000FB
S11355F0955000001D240000CA00002080B582B030
S113560000AF78603960054B7A681A60044B3A68D9
S11356101A60C046BD4602B080BDC046F4020020F8
S1135620FC02002090B58BB004AF04000800110008
S1135630BB1D221C1A807B1D021C1A703B1D0A1CF8
S11356401A701723FB18FF221A701523FB180B225C
S11356501A70BB1D1B88022B00D07EE07B1D1B78BB
S1135660012B08D11523FB1807221A701623FB18E7
S113567000221A7067E07B1D1B78022B08D11523CA
S1135680FB180B221A701623FB1807221A705AE013
S11356901723FB181B785BB263E01623FB181B78F7
S11356A01A01324BD3183B613B699B7ADBB2002B66
S11356B042D13B691022002118002D4B98473B69C9
S11356C001229A722B4B1B889BB201339AB2294B4D
S11356D01A80284B1B889BB2002B06D1254B1B88B4
S11356E09BB201339AB2234B1A80224B1B889AB285
S11356F03B69DA801723FB181622BA1812781A703D
S11357003B1D1B780122134026D00C23FB181722C3
S1135710BA1812781A703B692122DA720C23FA182B
S113572000230293002301930023009304235021B8
S11357300220114CA0470FE01623FB181A781623F9
S1135740FB1801321A701623FA181523FB18127865
S11357501B789A42A1D300E0C0461723FB181B789C
S11357605BB21800BD4607B090BDC046440200209D
S113577011160000CA000020451A0000B0B58AB016
S113578004AF39601100FB1D021C1A70BB1D0A1CFA
S11357901A701723FB18FA221A70FB1D1B787F2B33
S11357A067D83B68002B64D0FB1D1B785BB2354A7D
S11357B01B01D3180A331B78DBB2012B59D1BB1D53
S11357C01B78002B55D01623FB1844221A70FB1D9E
S11357D01B785BB22B4A1B01D3180B331B78DBB24B
S11357E01A00012313400FD01623FB184B221A7002
S11357F0FB1D1B785BB2234A1B01D3180B331B78A8
S1135800DAB20823FB185A720823FB18FA1D12781F
S11358101A7239680823FB18082218001A4B984793
S1135820FB1D1B785BB2174A1B01D31806331B8878
S11358309AB20823FB185A811723FC180823FA1874
S11358401623FB18197800230293002301930023E5
S113585000930C2302200D4DA84703002370172347
S1135860FB181B785BB2002B03D01723FB18F7221D
S11358701A701723FB181B785BB21800BD4606B0DC
S1135880B0BDC04644020020D5150000451A0000F2
S113589090B58FB004AF0400B960100019000F2355
S11358A0FB18221C1A700C23FB18021C1A80BB1D47
S11358B00A1C1A802623FB18062252421A800F2340
S11358C0FB181B787F2B00D987E0BB68002B00D125
S11358D083E00C23FB181A88AF23DB009A4200D91B
S11358E07BE00F23FB181B785BB2404A1B01D318E3
S11358F00A331B78DBB2012B6FD12323FB1845221B
S11359001A702423FB1850221A801023FB180F222C
S1135910BA1812781A701023FB180C22BA181288BD
S11359205A800F23FB181B785BB2304A1B01D31833
S113593006331B889AB21023FB189A810F23FB1895
S11359401B785BB2062B03DD2423FB1844221A8048
S11359500F23FB181B785BB2244A1B01D3180B33AB
S11359601B78DBB21A00012313400FD02323FB184A
S11359704C221A700F23FB1800229A562423FB187A
S11359801A4912018A18083212881A802323FB1834
S11359901B78802252421343D9B21023FA182423CD
S11359A0FB181B8802930C23FB181B880193BB680C
S11359B00093102302200E4CA04703001A00262354
S11359C0FB181A802623FB1800229B5E002B04D0B0
S11359D02623FB180E2252421A802623FB1800228B
S11359E09B5E1800BD460BB090BDC046440200202B
S11359F0451A000090B58DB004AFB96011007B600A
S1135A000F23FB18021C1A700C23FB180A1C1A80A3
S1135A101E23FB18062252421A800F23FB181B7800
S1135A207F2B00D999E0BB68002B00D195E00C23B3
S1135A30FB181B88002B00D18FE00F23FB181B7869
S1135A405BB24A4A1B01D3180A331B78DBB2012B21
S1135A5000D082E01E23FB1800221A800F23FB18BB
S1135A6000229A56414B1201B968D1500F23FB18FA
S1135A701B785BB23D4A1B01D31804330C22BA18BD
S1135A8012881A800F23FB181B785BB2374A1B015C
S1135A90D3180C331B78DBB2002B5ED11D23FB180B
S1135AA046221A700F23FB181B785BB22F4A1B0186
S1135AB0D3180C3301221A700F23FB181B785BB226
S1135AC02A4A1B01D3180B331B78DBB21A000123BB
S1135AD0134003D01D23FB184D221A707B68002B42
S1135AE005D11423FB18012252421A6003E0142347
S1135AF0FB187A681A601423FB180F22BA1812785C
S1135B001A710F23FB181B785BB2184A1B01D318B8
S1135B1006331B889AB21423FB18DA801423FA186C
S1135B201D23FB18197800230293002301930023FB
S1135B300093082302200E4CA04703001A001E23E2
S1135B40FB181A801E23FB1800229B5E002B04D036
S1135B501E23FB180E2252421A801E23FB18002219
S1135B609B5E1800BD4609B090BDC04644020020AB
S1135B70451A0000B0B588B004AF0200FB1D1A70CE
S1135B800F23FB18FA221A70FB1D1B787F2B6AD88F
S1135B90FB1D1B785BB2384A1B01D3180A331B78F0
S1135BA0DBB2012B5FD10E23FB1849221A700823A4
S1135BB0FB18FA1D12781A70FB1D1B785BB22E4A73
S1135BC01B01D31806331B889AB20823FB185A808A
S1135BD0FB1D1B785BB2284A1B01D3180A33002231
S1135BE01A70FB1D1B785BB2234A1B01D3180633C2
S1135BF000221A80FB1D1B785BB21F4A1B01D318BD
S1135C000B331B78DBB21A000123134003D00E239D
S1135C10FB184E221A700F23FC180823FA180E23BF
S1135C20FB181978002302930023019300230093A7
S1135C3004230220114DA847030023700F23FB18EF
S1135C401B785BB2002B03D00F23FB18F7221A70CA
S1135C50FB1D1B785BB21A01074BD31810220021DD
S1135C601800074B98470F23FB181B785BB21800EA
S1135C70BD4604B0B0BDC04644020020451A000031
S1135C8011160000B0B588B004AF78600F23FB187C
S1135C90FA221A707B681800194B984703001A00FF
S1135CA00E23FB181A700E23FB181B78402B1FD8E9
S1135CB00E23FB181B789BB2013399B20F23FC18F7
S1135CC07A680023029300230193002300930B00BE
S1135CD0CA2102200B4DA847030023700F23FB1891
