S025000057494E43313530302050726F776C204D6F6E69746F72206F6E205732352E73726563F1
S113000070230020E14B0000DD4B0000DD4B0000BD
S113001000000000000000000000000000000000DC
S1130020000000000000000000000000DD4B0000A4
S11300300000000000000000DD4B0000DD4B00006C
S1130040DD4B0000DD4B0000DD4B0000DD4B00000C
S1130050F1330000DD4B0000DD4B0000DD4B000000
S1130060DD4B0000F5390000053A0000153A0000A8
S1130070253A0000353A0000453A0000DD4B000007
S1130080DD4B0000DD4B00002505000035050000B8
S1130090450500000000000000000000DD4B0000EA
S11300A0DD4B0000DD4B0000DD4B0000DD4B0000AC
S11300B00000000010B5064C2378002B07D1054B37
S11300C0002B02D0044800E000BF0123237010BDC0
S11300D0780000200000000018820000084B10B5D2
S11300E0002B03D00749084800E000BF0748036815
S11300F0002B00D110BD064B002BFBD09847F9E72D
S1130100000000007C00002018820000188200001B
S11301100000000030B585B001AA0B4B32CB32C2CF
S1130120019B98420AD0029B984205D00023039A6F
S1130130824205D1023302E0012300E00023DBB256
S1130140180005B030BDC046C46C0000F0B54F4681
S11301504646C0B487B004000E0090460800924B97
S113016098478146914D29000C31032205A8904FF0
S1130170B84729001031062203A8B8470023A3601A
S1130180E36023616361237663764B469A00894B6F
S1130190D450266043469B78082B04D117204A4646
S11301A0D20700D4FBE0237133880520DB0700D598
S11301B0F5E0F37B1730DB0600D5F0E033889B07CE
S11301C000D5ECE043461B7C002B0CD002A9012394
S11301D08B700022CA704246127E0A704B704346EE
S11301E0187D754B984743461B7F002B0DD002A901
S11301F001238B700022CA704246526A0A704B7007
S113020043461B6AD8B26C4B98476C490B6A4A4602
S1130210520003A8125A13430B6243469B78082BDF
S113022006D10B6A4A4601325200125A13430B623A
S113023001A943461B780B7005AB4A469D5C280018
S11302405F4B984728005F4B9847434698789B79C3
S113025002001A43434618899B8803431A4310003B
S113026043465B78002B02D080231B01184321688E
S11302707F22CB7B9343FCD130804346587B431E83
S11302809841800043469B7B002B01D001231843F7
S113029021687F22CB7B9343FCD1FF333371002849
S11302A005D021687F22CB7B9343FCD170714346F8
S11302B0987ADB7A002B01D01023184343461B7B2A
S11302C0002B01D02023184321687F22CB7B93434A
S11302D0FCD1B07122687F21D37B8B43FCD123797D
S11302E0042B05D0082B41D01720002B57D124E034
S11302F07F21D37B8B43FCD128334246D35C3374B8
S113030021687F22CB7B9343FCD129334246D35CC3
S1130310337521687F22CB7B9343FCD12A33424639
S1130320D35C337621687F22CB7B9343FCD12B3380
S11303304246D35C7376002031E07F21D37B8B432C
S1130340FCD143461B8D338221687F22CB7B9343B0
S1130350FCD143465B8D338321687F22CB7B93435F
S1130360FCD143469B8D7383002018E07F21D37B0F
S11303708B43FCD143469B6A336121687F22CB7B4C
S11303809343FCD14346DB6AB36121687F22CB7B74
S11303909343FCD143461B6BF3610020FFE707B096
S11303A00CBC90469946F0BD15010000C46C0000D9
S11303B05D5B0000E40100207D4B00000004004070
S11303C0854A0000F949000010B5014B984710BD5B
S11303D04957000010B58EB001AA00230021937183
S11303E01381002050709172D17211739173517303
S11303F0117453619361117713625362138593856A
S113040004339370033B1370C023DB0093804021BB
S11304102923D1540E390133D15431310133D1540C
S1130420074C08492000084B984722687F21D37B5A
S11304308B43FCD1118802330B4313800EB010BDE3
S1130440C8010020002C00424D01000010B50C4CE6
S113045000220C4920000C4B984720680B4B98470E
S11304600B4B1B5C1F2213401E3A11009940094B91
S11304701960617E01230B43637623685A7310BDB0
S1130480C8010020C9030000990400001501000000
S1130490DC6C000000E100E0931C9B001950022A70
S11304A004D1027E1023134303760BE0032A04D104
S11304B0027E20231343037604E001239340027E4B
S11304C0134303760020704770B58000144BC55861
S11304D02B689C7B2B7E1C406B7E1C40E30705D560
S11304E02800AB68984701232A689373A30705D5AE
S11304F02800EB68984702232A689373E30605D51E
S113050028002B69984710232A689373A30605D5FE
S113051028006B6998472B6820229A7370BDC046E7
S1130520E401002010B50020014B984710BDC046DF
S1130530C904000010B50120014B984710BDC04606
S1130540C904000010B50220014B984710BDC046F5
S1130550C904000070B50020084B98470500084CFA
S1130560FA218900A047074B186007492800A047D3
S1130570064B18600522064B1A6070BD6D490000D9
S1130580A15900000400002040420F000000002098
S113059010E000E030B5084B1C68084A00258021B3
S11305A0490206E0002C04D05460956013680B42A5
S11305B0FCD00138F6D230BD0400002010E000E089
S11305C010B5034B1B68002B00D0984710BDC046E4
S11305D09400002070B5002806D00400034D0120CB
S11305E0A847013C002CFAD170BDC0469505000017
S11305F0F8B5084C80277F0567618026360566615B
S11306006420054DA847A7610A20A847A6610A20CF
S1130610A847F8BD00440041D505000070B582B07C
S11306200023134A136001AC01256570A370257083
S113063021001B200F4EB04721001C20B047210091
S11306402820B0470C4B1B681D4203D00A4B1B6883
S11306509B0701D4094B9847094B98470122094B42
S11306601A70BFF35F8F62B6002002B070BDC0463F
S1130670940000206535000010E000E055050000FE
S1130680F10500001000002010B584B00E4B186076
S113069001AC20000D4B984729230193002363608C
S11306A0013323720133E37221000920084B984778
S11306B0002209210748084B984700210920074BCD
S11306C0984704B010BDC04694000020DD340000FB
S11306D0F1340000C105000085330000B13300008F
S11306E010B5002804D000210920044B984703E0EA
S11306F000210920024B984710BDC046B1330000C9
S1130700D133000030B591B0304C0E232370002358
S11307106370A37001A901224A708B700A700E20C5
S11307202B4B98472378D9090022002904D15A0970
S1130730D20128498C4662441F210B401E3908000F
S11307409840906102AC2170002303930493C0226B
S11307509203059223746374A174E17423752422B3
S1130760A354183A002108A81B4B98471B4BA362BB
S11307701B4BE36201235B4223631A4B63631A4BF3
S1130780A361220019491A481A4B9847002819D125
S1130790174D2C682000184B98471F2318401E3B08
S11307A08340164A13602A68D369002BFCD122685F
S11307B0023313432360124B98470120114B98478F
S11307C0002001E00620404211B030BDF0010020BD
S11307D065350000004400416F5B000002000C001E
S11307E002000D0002000F00001BB70000100042C1
S11307F0F4010020553A0000C939000000E100E08E
S1130800F1050000D5050000F0B55F4656464D469B
S11308104446F0B483B0032865D10F684E680D894F
S113082000226B46DA71002F08D0002E58D1012324
S11308309946002398466B46DE1D05E00023994641
S1130840013398466B46DF1D012231493148324B52
S11308509847002D37D02F4B9B46012404229A46FB
S113086049464B425941894641464B425941884683
S113087038785B461B68197E2142FCD0197E2142E0
S1130880FCD09862197E1142FCD0514689798C467D
S1130890197E1142FCD0588B0021104201D05A839A
S11308A01E316046012803D1986AC005C00D01E0DD
S11308B0986AC0B20029EBD13070013DADB24E440C
S11308C04744002DD4D1134B196802220B7E1342E6
S11308D0FCD000220E490F480F4B9847002010E02F
S11308E0062040420DE0862252000C490C480D4B74
S11308F098470D480D4B98470D200D4B9847012004
S1130900404203B03CBC90469946A246AB46F0BD7B
S1130910F0010020F4010020213C0000086D0000DB
S1130920E06C0000815B0000F46C0000A15C00003E
S1130930B55B000070B50B4D2C6820000A4B98473E
S11309401F2318401E3B8340802208498B502A688D
S1130950D369002BFCD12368022293432360002037
S113096070BDC046F4010020C939000000E100E078
S1130970002A06D082180B780370013001319042AE
S1130980F9D17047002A04D08218017001309042D6
S1130990FBD1704703000278002A07D00020013001
S11309A080B201331A78002AF9D100E000207047A0
S11309B010B50300002A1AD000780C78A0420AD19E
S11309C0002817D0013A92B201329A1809E0187837
S11309D00C78A04203D0A0420BD301200AE00028E7
S11309E008D0013301319342F1D1002002E000200C
S11309F000E0FF2010BDC046F0B583B004000E78BF
S1130A00002E17D04B1C009318000B4B98470190F5
S1130A100A4F00E02C00651C2378002B09D09E426D
S1130A20F8D1019A00992800B8470028F2D1200093
S1130A3000E0002003B0F0BD95090000B1090000FA
S1130A4030B5002A0ED004780B789C420CD10023D8
S1130A5003E0C55CCC5CA54208D101339A42F8D1CD
S1130A60002004E0002002E0012000E0012030BD6D
S1130A70024A13780133DBB213707047A0000020E0
S1130A807047C04600B583B00120084B984701A9C0
S1130A900748084B9847002806D10221019B1943B7
S1130AA001910348044B984703B000BDE1060000E0
S1130AB070100000051E0000111E000010B50E4B42
S1130AC01B78002B11D10D4B1B78032B03D00B4B40
S1130AD01B78042B09D10A4B984700280BD10949EC
S1130AE009480A4B9847002805D1034A1378013373
S1130AF0DBB21370002010BDBC000020AC0000204D
S1130B00311900007856000074100000111E000016
S1130B1000B583B0174B1B78002B04D0154A13780B
S1130B20013BDBB21370134B1B780020002B1ED14A
S1130B30114B1B78032B03D00F4B1B78042B16D1BE
S1130B40002301930D490E480E4B984700280ED1FF
S1130B5001A901300C4B9847002808D101998B0753
S1130B6005D50223994301910130064B984703B000
S1130B7000BDC046BC000020AC00002021430000A2
S1130B8074100000111E0000051E0000F0B55F4641
S1130B905646C0B489B083468A460192009310AB8E
S1130BA080CB1E8812AB1D887F220A4007AB5A7087
S1130BB0187008225A80002F05D05A889219AA1852
S1130BC092B25A8006E007AB5A8800998C46624478
S1130BD092B25A80564B9847041E00D08EE00023F0
S1130BE0059302AAD3800493049B5A461A430492A1
S1130BF0049A53461B021343049307AB5B88049A7D
S1130C001B041343049304994A484B4B9847041E0E
S1130C1000D086E000230493049A02331343049320
S1130C2004994648444B9847041E00D079E00022BA
S1130C30059202ABDA8006331B889BB2404A93428A
S1130C401CD8404C04A93D48A047002816D1049B59
S1130C509B0708D405A93C483A4B984700280DD077
S1130C60002305930AE002ABDA88013292B2DA80FB
S1130C7006331B889BB2324A9342E3D9059B002B6F
S1130C804DD0059B069307A94B889BB24B800698D1
S1130C9008222E4B9847041E43D1069B0833069323
S1130CA0019B002B0BD00698009A1900274B9847FC
S1130CB0041E36D1069B009A944663440693002F83
S1130CC00ED0069B009AAD1AED18069506983200D0
S1130CD039001E4B9847041E23D1069BF318069334
S1130CE0059B9B000493049A0223134304930499E1
S1130CF01748114B9847041E13D10CE0A022FF3271
S1130D0014491548154B98471548164B98470D201C
S1130D10154B984705E0154B9847040001E0032460
S1130D206442200009B00CBC92469B46F0BDC0460C
S1130D30BD0A00008C100000111E00007810000095
S1130D40E7030000051E000000041500851E0000D6
S1130D506C100000386D0000E06C0000815B000046
S1130D605C6D0000A15C0000B55B0000110B00008D
S1130D70F0B54F464646C0B487B0A84B984699464E
S1130D80A74E3FE14B461B78013BDBB24A4613704A
S1130D90B047041E00D017E103A9A248A24B98470C
S1130DA0041E00D004E1039BDB0700D4F3E0002021
S1130DB09E4B9847012303999943039199489C4B6F
S1130DC09847041E00D011E100229A4B1A70039B2D
S1130DD09B041F0D00D1D0E00023059305A996487C
S1130DE0914B9847041E0FD0E72252009349944830
S1130DF0944B98479448954B98470D20944B9847AB
S1130E0001208A4B9847EFE004AD0422290005989D
S1130E10904B984704006B889BB26B8000280FD0DE
S1130E20EB22520085498648864B98478A48874B6F
S1130E3098470D20864B984701207C4B9847D3E078
S1130E4004AB5B889BB29F421DD004AB5B88FB1A4A
S1130E50042B18DDE022FF3278497948794CA04709
S1130E6004A94A8892B20B78DBB249780091390020
S1130E707A48A0470D20764B984701206B4B984742
S1130E8006246442B0E004AB1B78012B0DD1744BF3
S1130E901B68002B5FD004AA5078C0B25188059A11
S1130EA00832083989B2984755E004AB1B78022B05
S1130EB00DD16C4B1B68002B4DD004AA5078C0B2E6
S1130EC05188059A0832083989B2984743E004AB3F
S1130ED01B78042B0DD1644B1B68002B3BD004AA58
S1130EE05078C0B25188059A0832083989B29847B7
S1130EF031E004AB1B78062B0DD15C4B1B68002B37
S1130F0029D004AA5078C0B25188059A0832083909
S1130F1089B298471FE004AB1B78072B0DD1544BC3
S1130F201B68002B17D004AA5078C0B25188059AC8
S1130F300832083989B298470DE04E4A3F49404883
S1130F40404B98474C48414B98470D20404B98479D
S1130F500624644248E0374B1B78002B41D1474AB2
S1130F6036493748374B98474548384B98470D2002
S1130F70374B9847434B984733E0434A2F4930480F
S1130F80304B98474148314B98470D20304B984798
S1130F90022464422AE08622920028492848294CE7
S1130FA0A04703993A48A0470D20294B984718E0D9
S1130FB0384A22492248234B98473748234B9847BD
S1130FC00D20234B984711E0892292001B491C48AD
S1130FD01C4B984731481D4B98470D201C4B984794
S1130FE004E02F4B98470400002C0BD02D4A2E49C7
S1130FF01348144DA84721002C48A8470D20144B32
S11310009847C5E643461B78002B00D0BAE600207B
S113101007B00CBC90469946F0BDC046A000002025
S1131020BD0A000070100000051E0000E10600006B
S1131030111E0000B400002084100000546D000054
S1131040E06C0000815B0000786D0000A15C000092
S1131050B55B00001D1E00009C6D0000B46D000017
S11310609C000020B0000020B80000209800002060
S1131070A800002002020000F46D00000902000034
S11310800C6E0000850A000011020000306E0000A2
S1131090446E00001E020000606E0000846E0000BA
S11310A0110B000043020000446D0000A46E000018
S11310B0F0B54F464646C0B483B006000C00150098
S11310C01F00002803D0002901D0002A15D1002FC9
S11310D005D00122314B1A70314B984759E0314AFF
S11310E031493248324B98473248334B98470D20A8
S11310F0324B98470C2040424BE069463048314B14
S11311009847002845D1009B984601A92E482D4BAD
S1131110984700283DD143469B041B0D98469D42A9
S11311200ED92A4A20492148214CA0474246290089
S11311302748A0470D20214B98470C20404228E027
S1131140019B9E4204D37219914643449A420ED99C
S1131150A022920014491548154B98471D48164B78
S113116098470D20154B98470C20404211E02A0067
S113117021003000184B984700280AD1019B4344B2
S1131180994501D0002F04D00122044B1A70044B5E
S1131190984703B00CBC90469946F0BDB4000020BB
S11311A0850A000069020000886F0000E06C0000FE
S11311B0815B0000D46E0000A15C0000B55B000000
S11311C070100000051E0000841000007A02000068
S11311D0F46E0000386F00001D1E000070B5041E80
S11311E0072C1BD88300144AD3589F46134B19600D
S11311F0002020E0124B196000201CE0114B196004
S1131200002018E0104B1960002014E00F4B196007
S1131210002010E00E4B196000200CE00D4A0E492E
S11312200E480F4DA84721000E48A8470D200E4B2D
S113123098470C20404270BD186D0000B00000209B
S11312409C000020B8000020A4000020980000208A
S1131250A8000020B9020000946F0000E06C0000B8
S1131260815B00007C6F0000B55B000010B50023BB
S1131270094A1360094A1360094A1370094A137032
S1131280094A137009480A4B98470A4903200A4B34
S11312909847002010BDC0469C000020B0000020EC
S11312A0BC000020AC000020A0000020710A000057
S11312B089060000810A0000DD11000030B59FB0EE
S11312C0040015002C2811D10023042203A92800AE
S11312D0944CA047002800D022E1934B1B68002BBC
S11312E000D11DE103A92C30984719E11B2811D125
S11312F00023082203A928008A4CA047002800D014
S11313000EE1894B1B68002B00D109E103A91B30B6
S1131310984705E1062811D10123302203A92800AA
S1131320804CA047002800D0FAE07F4B1B68002BBC
S113133000D1F5E003A906309847F1E00E2800D16A
S1131340EEE0322811D10023102203A92800754CA5
S1131350A047002800D0E3E0734B1B68002B00D1AA
S1131360DEE003A932309847DAE02F2816D1642250
S1131370002103A86D4B98470023642203A9280089
S1131380684CA047002800D0CAE0674B1B68002BBC
S113139000D1C5E003A92F309847C1E0342822D1F9
S11313A00023042203A928005E4CA047002800D093
S11313B0B6E05F485F4CA0470398030CFF210B4045
S11313C0020A0A400140000E00905B48A0470D202D
S11313D05A4B9847544B1B68002B00D1A0E00021C6
S11313E0342098479CE0112818D10022544B1A70DD
S11313F00023043203A928004A4CA047002800D047
S11314008EE003AB1A784F4B1A70474B1B68002BC6
S113141000D185E003A91130984781E013280FD14A
S113142000232C2203A928003E4CA047002877D192
S11314303D4B1B68002B73D003A9133098476FE012
S113144004280FD1002304221CA92800354CA047EE
S1131450002865D1344B1B68002B61D01CA90430D3
S113146098475DE065280FD1002304221CA92800B9
S11314702C4CA047002853D12B4B1B68002B4FD07A
S11314801CA9653098474BE009280FD10123642239
S113149003A92800234CA047002841D1224B1B68F4
S11314A0002B3DD003A90930984739E02A280FD1F1
S11314B00123042203A928001A4CA04700282FD195
S11314C0194B1B68002B2BD003A92A30984727E01F
S11314D0202819D10023082203A92800114CA04771
S11314E000281DD103AB9A882800083001230399F2
S11314F00C4CA047002813D10B4B1B68002B0FD0BA
S113150003A9203098470BE0922252000E490F485D
S1131510084DA84721000E48A8470D20074B9847BF
S11315201FB030BDB1100000C000002085090000CC
S1131530C06F0000815B0000CC6F0000B55B000051
S1131540C4000020C5000020B46F0000E06C00005F
S1131550EC6F0000F0B58BB001226B46DA71002805
S11315604AD00268274B1A600022274B1A706B4638
S1131570D81D264B9847041E40D10020244B984781
S1131580041E35D123490120234B984702AD28007E
S1131590224B984704002248224EB047AB796A791F
S11315A029792148B0470D20204FB8471C48B0473F
S11315B06B7A2A7AE9791E48B0470D20B847184853
S11315C0B0470023032213211A48B0470D20B8471F
S11315D023000D3312D1D022FF3217491748114B83
S11315E098471748174B98470D20104B984705E02C
S11315F00020154B984701E00C24644220000BB0F6
S1131600F0BDC046C0000020C4000020991F0000A7
S11316106D120000BD120000DD110000ED1E00007F
S1131620C06F0000815B000098700000B55B000093
S1131630B4700000D0700000A46F0000E06C0000E3
S1131640EC700000A15C00006D20000010B5014B9F
S1131650984710BD710D0000F0B54F464646C0B422
S1131660A3B005900C0015001F002AAB1B889946F7
S11316702BAB1B789846012A41D0002F0ED1FE22B5
S1131680FF327E497E487F4B98477F487F4B98477F
S11316900D207F4B98470C204042E9E0022A2ED1CE
S11316A038007C4B9847402829D13B781A00303ABF
S11316B0362A13D80A3A062A10D9473B192B0DD9D2
S11316C07A1C38004030137819003039362905D88F
S11316D00A39062902D9473B192B0DD86E4A6749A6
S11316E06748684B98476D48684B98470D20684B8E
S11316F098470C204042BBE001328242E3D1631E92
S11317001F2B0DD9664A5D495D485E4B9847654875
S11317105E4B98470D205E4B98470C204042A7E053
S11317204B460D2B10D9FF2B0ED087229200534924
S11317305348544B98475C48544B98470D20544B9E
S113174098470C20404293E007AE220005995A20A6
S113175002AB9C466044554B9847341946340023E9
S1131760237044334A46F25243465A1E9341672239
S1131770B3544123F554032D3BD13B78013BDBB2F9
S113178007AA1370032B0ED9494A3C493C483D4CE7
S1131790A04707AB19784748A0470D203C4B984712
S11317A00C20404264E07A78511E07AB5970102334
S11317B0110099430B290ED03F4A30493048314C2F
S11317C0A04707AB59783D48A0470D20304B9847B8
S11317D00C2040424CE0B91C162002AB9C466044ED
S11317E0324B98477B7807AA9446634400229A7048
S11317F034E0022D1AD13800264B9847431E9BB281
S11318003F2B0DD92E4A1D491D481E4B98472D4884
S11318101E4B98470D201E4B98470C20404227E052
S1131820421C390007A8214B984717E0042D05D125
S11318303E22390007A81D4B98470FE0012D0DD01B
S1131840214A0E490E480F4B984720480F4B9847A2
S11318500D200F4B98470C20404209E000230293CF
S1131860019300936C3307AA28210120184CA04748
S113187023B00CBC90469946F0BDC046D07200001F
S1131880E06C0000815B000008710000A15C0000B6
S1131890B55B000095090000090200001C710000FE
S11318A013020000287100003C710000710900005F
S11318B033020000487100003A0200006471000025
S11318C04902000080710000590200009C71000070
S11318D08D0B000030B583B006AC2488002501953B
S11318E00094024CA04703B030BDC0465916000016
S11318F000207047F0B583B00400A5256D010A4EA1
S11319000A4F21002800B047002C09D0002301937E
S113191001A92800B8470028F3D1019B9C42F0D1CB
S1131920002003B0F0BDC046111E0000051E0000DB
S1131930F0B55F4656464546E0B484B00120434BBB
S1131940984703A90120424B98470190002400289E
S11319500BD072223F494048404B98474048414B86
S113196098470D20404B984768E0404B9B46374BC7
S11319709A463F4B98460221039B19430120D847BE
S11319800120D04702A943461868314B98470028E4
S113199006D1029B002B03D0364D2C4F344E3BE036
S11319A0334D0E232B600120284B9847286802A949
S11319B0274B9847002802D1029B002BECD12C4DD9
S11319C013232B600120214B9847286802A9204B40
S11319D09847051EE0D096221E491F481F4B984782
S11319E02548204B98470D201F4B9847019525E02B
S11319F00220B84702A93068154B9847029B5B0741
S1131A000AD4AA2213491448144B98471B48154B6F
S1131A1098470D20144B9847029B5B070ED4013462
S1131A2003212000A8470029E2D00221039B194387
S1131A3001200E4B9847029B5B079CD5019804B08C
S1131A401CBC90469A46A346F0BDC046D50500008E
S1131A50051E000004740000E06C0000815B0000BF
S1131A60F0720000A15C0000B55B0000111E0000D4
S1131A700C000020AD5A0000107300003073000009
S1131A8000B583B001A91748174B984700281CD10B
S1131A9080214900019B194301911248134B984737
S1131AA0002815D101A9D02040010F4B98470028E8
S1131AB011D180214902019B19430191D020400199
S1131AC00A4B9847002809D10AE00620404207E063
S1131AD00620404204E00620404201E00620404245
S1131AE003B000BD08140000051E0000111E000014
S1131AF010B582B0274B1C68002C46D119008020F9
S1131B004001254B9847002803D00022214B1A603E
S1131B103DE001A92148204B9847002803D000222A
S1131B201C4B1A6033E01B4B1B681D4A934206D1C1
S1131B30019B012B21D01B4A164B1A601DE01A4A47
S1131B4093420CD1019B032B17D0042B03D1174ACA
S1131B50104B1A6011E0164A0E4B1A600DE0154A3C
S1131B6093420AD10B49EC2080030B4B9847002881
S1131B7003D00022074B1A6009E0064A0E4B116895
S1131B800B40A021C9020B431360024B1C682000C8
S1131B9002B010BDC8000020051E0000F4130000B0
S1131BA0A0021000A1021000B0021000B102100047
S1131BB0B2021000F0001000FFFFF0FFF8B50700BC
S1131BC0244D254C254E2800A047002802DB012087
S1131BD0B047F8E72248204B9847C30709D41F4E63
S1131BE0204C1D4D0120B0472000A8471E4B9842B1
S1131BF0F8D1022F09D11D491D481E4CA047802150
S1131C0049031D48A04700270EE0032F08D11749B8
S1131C101748184CA04700211748A047002703E0A5
S1131C20043F7B425F41FF01144B98470005000DC0
S1131C30E8239B00984204D102203843104B984774
S1131C4002E038000E4B98470E490648094B984766
S1131C500020F8BD14100000F91D0000D505000097
S1131C60BC0702000C000C009ED0AD107DD51C3CBE
S1131C70AC070200111E00008C100000F11A0000D5
S1131C80F5180000612F52EF70B582B0154B019327
S1131C90154B0093023801280CD8144B0193144BB4
S1131CA0009307E00220B0470198A847013C002CAC
S1131CB005D112E00124644200200E4E0E4D009B1B
S1131CC09842EFD1009A0020074B9A4207D1002195
S1131CD004480A4B9847002001E00520404202B026
S1131CE070BDC0468C10000036265302AC070200BB
S1131CF0C3C15DD7D5050000F91D0000111E000009
S1131D00F0B583B00023019301A9A0204001274B23
S1131D10984700280AD0264A26492748274B98473F
S1131D202748284B98470D20274B98472749019B64
S1131D3019400191A0204001254B984704000A2531
S1131D4000280CD0234A1B491B481C4B98472248A7
S1131D501C4B98470D201C4B9847200024E0134E41
S1131D601B4F01A9A0204001B047041E0DD08F22B3
S1131D70920010491048114B98471848114B984746
S1131D800D20114B984720000EE001994B050AD510
S1131D900E4B19400191A0204001B847013DEDB21E
S1131DA0002DDED100E0002003B0F0BD051E0000D0
S1131DB02F020000E4720000E06C0000815B000070
S1131DC07C730000A15C0000B55B0000FFFBFFFF1B
S1131DD0111E00003502000094730000AC73000073
S1131DE010B5014B984710BD0507000010B5014B15
S1131DF0984710BD3509000010B5014B984710BD38
S1131E008D26000010B5014B984710BDA126000097
S1131E1010B5014B984710BDB9260000F0B55746E0
S1131E204E464546E0B482B0804689461500134BC1
S1131E301F88083FBBB201931E0004009A4206D8D3
S1131E400021AAB2494420000D4B984710E00C4BE6
S1131E509A46371A4346E11A4944019A2000D0476A
S1131E60002805D1AD1B3919A419B542F2D8E8E709
S1131E7002B01CBC90469946A246F0BD0800002062
S1131E80F9270000F0B557464E464546E0B482B007
S1131E90804689461500134B1F88083FBBB2019347
S1131EA01E0004009A4206D80021AAB24944200028
S1131EB00D4B984710E00C4B9A46371A4346E11AEB
S1131EC04944019A2000D047002805D1AD1B391997
S1131ED0A419B542F2D8E8E702B01CBC9046994672
S1131EE0A246F0BD08000020D1280000F0B583B060
S1131EF004000023019301A92048214B98470500C1
S1131F00204B019A9A4204D101A91F481C4B9847BF
S1131F100500019B1A0C1112E17111110F263140B9
S1131F202172324062721A1222711A1132406271A5
S1131F303340A371154B9847206023791A02A37983
S1131F403340134360790001FF2738400343E079AD
S1131F500002627A16400643217A090139403200B0
S1131F600A430B498A4201D90D256D42094A93421D
S1131F7001D80D256D42280003B0F0BDAC07020066
S1131F80051E0000C3C15DD748100000F11A00000F
S1131F90301300002F13000070B5002805D0057819
S1131FA06B1E032B02D9012500E0012500201F4BE5
S1131FB09847041E0CD0922252001D491D481E4B06
S1131FC098471E481E4B98470D201E4B98472BE000
S1131FD01D48194CA0471D4B984701001C48A047B9
S1131FE00D20184B98471B4B984728001A4B9847CD
S1131FF0041E17D12800194B9847041E12D1A81E9D
S1132000012811D9164B9847041E0DD0AE22520058
S113201007490848084B98471248094B98470D2030
S1132020084B9847104B9847200070BDE11D0000F5
S113203014740000E06C0000815B00003074000048
S1132040A15C0000B55B0000C06F0000F11A000045
S11320504C740000D1260000BD1B0000891C000048
S1132060811A00005C740000ED1D000010B51C4BCB
S11320709847041E0CD0BA2252001A491A481B4B26
S113208098471B481B4B98470D201B4B984724E04F
S113209000201A4B9847041E0CD07C22FF321149B1
S11320A01148124B98471648124B98470D20124B73
S11320B0984712E0134B9847041E0CD08222FF323B
S11320C008490948094B98470F480A4B98470D207F
S11320D0094B984701E00D4B9847200010BDC046BE
S11320E0011D000020740000E06C0000815B000012
S11320F07C740000A15C0000B55B0000F9310000B5
S11321009C740000ED1D0000C07400007D260000DA
S113211000B585B001AB002201920290198119002B
S11321200320024B984705B000BDC04609080000D3
S1132130F0B583B0061ECF2E04D003003B33DBB2D0
S1132140012B07D801216B46D81D244B9847002347
S1132150002840D10B246B46DD1D204F01212800AF
S1132160B84700280DD02822FF321D491D481E4BB8
S113217098471E481E4B98470D201E4B9847002336
S113218029E02B78B34205D0013CE4B2002CE5D120
S11321900B3400E00B246B46DD1D104E012128009A
S11321A0B04700280DD03622FF320D490D480E4BA2
S11321B098470E480E4B98470D200E4B9847002326
S11321C009E02B78002B05D0013CE4B2002CE5D1CA
S11321D0012300E00123180003B0F0BD1121000029
S11321E028750000E06C0000815B0000647500004D
S11321F0A15C0000B55B0000F0B55F4656464D4655
S11322004446F0B483B082468946934600239846F8
S11322103E4F80239B01994502D84B461EB201E0F4
S11322208026B6010A246B46DD1C01212800B8472C
S113223000280DD05822FF3235493648364B98478E
S11322403648374B98470D20364B9847002055E0C9
S11322502B781B090F2B04D0013C24B2631CE4D15E
S113226001E0002C0EDC6422FF32294929482A4C63
S1132270A0476B46D9782C48A0470D20294B984796
S113228000203BE0B6B25046404431001F4B984713
S113229000280DD0B62252001D491E481E4B9847F7
S11322A022481F4B98470D201E4B9847002025E0DD
S11322B05B46002B17D11E4B1B78002B13D1022138
S11322C001A8124B984700280DD07822FF321049FC
S11322D01048114B98471748114B98470D20114B44
S11322E0984700200AE04346F3181BB298464B4631
S11322F09E1BB3B29946002B8BD1012003B03CBC8A
S113230090469946A246AB46F0BDC0461121000056
S113231044750000E06C0000815B000098750000CB
S1132320A15C0000B55B0000CC750000FC750000EA
S1132330CC0000202C76000000B585B001AB0190E4
S113234000220292198119000320024B984705B01C
S113235000BDC0460908000070B584B008AC2578FB
S113236001AC20703F30C4B20E2C00D992E0A00022
S1132370504C2058874601AB0A0C5A700A0A9A70CE
S1132380D97005218EE00B0ADBB2002D02D101AA1F
S1132390537004E080225242134301AA537001ABEC
S11323A099700022DA7005217CE001AB00225A709A
S11323B09A70DA70052175E001AB00225A709A70A8
S11323C0DA7005216EE001ABFF225A709A70DA7060
S11323D0052167E001AA080C5070080A9070D170BA
S11323E0190A1171537107215CE001AA080C50709D
S11323F0080A9070D170190C1171190A51719371F6
S113240008214FE00B0ADBB2002D02D101A8437072
S113241004E080204042034301A8437001AB99705B
S1132420110ED970110C1971110A59719A71082180
S113243038E001AB080C5870080A9870D970110E76
S11324401971110C5971110A9971DA71092129E074
S11324505B0010784340E35C01329542F8D15B00A5
S113246001AA935501E00139C9B289B201A8124BFE
S11324709847012300281AD0842252000F4910489B
S1132480104B98471048114B98470D20104B984714
S113249000230CE000230AE04E1E01AA95197F23B5
S11324A00C4CD5E70C4B1B78002BDCD1F4E718005F
S11324B004B070BDDC74000039230000307B0000E0
S11324C0E06C0000815B000060760000A15C00000D
S11324D0B55B0000207A0000CC00002070B582B00B
S11324E004000A00302802D90023C92501E0012391
S11324F0C3250093042321002800174EB047012868
S11325000DD0EC22FF3215491548164DA84721007D
S11325101548A8470D20154B984700201AE02800BD
S1132520134B984703000120012B13D0F222FF32F2
S11325300A490B480B4DA84721000E48A8470D2017
S11325400A4B98470023009300220021CF20024C1D
S1132550A047002002B070BD59230000207B00007A
S1132560E06C0000815B00008C760000B55B00002D
S113257031210000B8760000F0B587B0041E039145
S1132580FF2C02D90026CA2501E00126C4250096A5
S113259004230022210028002A4FB84701280CD028
S11325A0294A2A492A482B4DA84721002A48A847E6
S11325B00D202A4B9847002041E02800284B9847DB
S11325C0012813D0274A21492148224DA847210038
S11325D02548A8470D20214B98470023009300224B
S11325E00021CF20174CA047002028E0320004210E
S11325F005A81E4B9847012813D01D4A13491448B7
S1132600144B98471B481C4B98470D20134B984775
S11326100023009300220021CF200A4CA047002071
S11326200DE005AA5378190293781B040B43117823
S11326300B43D27812061343039A1360012007B0A8
S1132640F0BDC04659230000450200003475000067
S1132650E06C0000815B0000F0760000B55B0000D8
S1132660312100004B0200001C770000F92100001A
S11326705302000050770000A15C00000022024BCE
S11326801A7000207047C046CC00002000B583B00B
S113269001A9024B9847019803B000BD79250000B9
S11326A010B5044B98470023012800D0063B1800BE
S11326B010BDC0467925000010B5044B984700238F
S11326C0012800D0063B180010BDC046DD240000E0
S11326D010B582B000230093364A13706946364819
S11326E0364B9847002820D10122324B1A70344AC5
S11326F034493548354B98473548364B98470D2073
S1132700354B984769462C482C4B9847041E0CD1EE
S1132710B22292002B492C482C4B98472F482D4B22
S113272098470D202C4B984740E0224B1B78002BF8
S113273019D17C33009999432C3B194300911E48CD
S1132740274B9847041E0BD1264A1E491E481F4B8F
S1132750984725481F4B98470D201F4B984725E065
S11327600122144B1A7001A980204001134B984791
S113277000280ED1B722920012491348134B9847F0
S11327801A48144B98470D20134B9847062464426B
S11327900CE0094C2000164B984770230100994324
S11327A0203B19432000134B98470024200002B01B
S11327B010BDC046CC00002024E8000079250000AC
S11327C0C5020000087A0000E06C0000815B000094
S11327D070770000A15C0000B55B0000C0770000CA
S11327E0DD240000D2020000EC7700002078000015
S11327F08D260000B9260000F0B583B004000E0059
S1132800150000230093130000220100C820244F68
S1132810B84701280CD09D22920022492248234D1A
S1132820A84721002248A8470D20224B984733E0AF
S1132830C820214B9847012812D0204A19491A4828
S11328401A4DA84721001E48A8470D20194B984748
S11328500023009300220021CF20114CA0471BE04D
S1132860002229003000174B984703000020012B59
S113287014D0A12292000B490B480C4B98471248E4
S1132880124B98470D200B4B9847002300930022CE
S11328900021CF20024CA0470620404203B0F0BDE7
S11328A059230000147A0000E06C0000815B0000F2
S11328B044780000B55B0000312100007A0200007A
S11328C074780000F9210000AC780000A15C0000DD
S11328D0F0B5574680B486B004008A46150000233C
S11328E00093130000220100C720544EB047012872
S11328F00BD0534A53495448544DA84721005448D7
S1132900A8470D20534B984792E0C720524B984755
S1132910012812D0514A4B494B484C4DA84721003D
S11329204F48A8470D204B4B9847002300930022A3
S11329300021CF20414CA0477AE0002205AB1A8049
S113294000268027BF016B46DF812C1CBD4201D9C4
S11329506B46DC89A4B2002E04D10323BD4205D901
S1132960023B03E00023AF425B4102330B2002AA87
S11329709446604410225242134303700121394BA0
S1132980984700280CD0D422520037492E482F4BA8
S113299098473648364B98470D202E4B984731E0E0
S11329A05346981921002F4B984700280CD0B22287
S11329B0FF322D492448254B98472E482C4B9847E5
S11329C00D20244B98471DE02B4B1B78002B12D174
S11329D0022105A8234B984700280CD0BC22FF32C3
S11329E021491948194B98472448214B98470D20F1
S11329F0184B984706E0A3191EB22D1BADB2002D4B
S1132A00A3D113E01E4A0F490F48104B98471D48A5
S1132A10174B98470D200F4B984700230093002233
S1132A200021CF20054CA047002003E0002001E056
S1132A300620404206B004BC9246F0BD5923000073
S1132A400F02000018750000E06C0000815B0000BC
S1132A50D4780000B55B00003121000015020000AD
S1132A600479000039230000547500003C7900000B
S1132A70A15C000074790000CC000020A87900005B
S1132A8026020000E0790000F0B55F4656464D4648
S1132A904446F0B485B002900E0003921F000EABC2
S1132AA01C88002C52D003012C495B58002B4DD0BC
S1132AB00301CB189B889BB2002B47D00301CB1892
S1132AC09B7A012B42D1F480030199460B004B44BD
S1132AD09B46D84601975B469B88E31A1BB2002BA2
S1132AE004DD43469D88ADB2002301E025000123A7
S1132AF01A4A494689582A000198194FB8470028AC
S1132B001BD1164B4A46D3583360B580F3885B1B00
S1132B10F380144B1B68002B05D0124B1B6832004A
S1132B20039902989847641BA4B2019B9C46AC4449
S1132B3063460193002CCED108E00B480B4DA84707
S1132B4021000B48A8470D200A4B984705B03CBC10
S1132B5090469946A246AB46F0BDC04634020020DA
S1132B60B1100000E4020020C06F0000815B00008F
S1132B70387B0000B55B0000F0B54F464646C0B454
S1132B809BB00D00140041281AD10023042209A986
S1132B902000AA4CA047002800D049E109AB5A788C
S1132BA005AB1A70A64B1B68002B00D140E1A44B67
S1132BB01B6809AA0020105605AA0121984737E18D
S1132BC042281AD10023042209A920009B4CA047C3
S1132BD0002800D02CE109AB5A7805AB1A70984B49
S1132BE01B68002B00D123E1954B1B6809AA002028
S1132BF0105605AA022198471AE143283FD1002321
S1132C000C2205A920008D4CA047002800D00FE11C
S1132C1005AB0921595600291ADB0A01894B9B1877
S1132C200022DA7201329A72874A138801339BB206
S1132C30138013889BB2002B03D1138801339BB2FA
S1132C401380814B1A8892B20B017E48C318DA8034
S1132C5009AB197002229A8005AA5188D980069A74
S1132C600B92774B1B68002B00D1E1E0744B1B687F
S1132C7005AA0820105609AA04219847D8E0442838
S1132C8001D04B2825D10023042209A920006B4C34
S1132C90A047002800D0CBE009AB0020185605AAB5
S1132CA010705B785BB25370002B07D109AB5A8864
S1132CB0083A92B203016349CB181A81604B1B682E
S1132CC0002B00D1B4E05E4B1B6805AA0521984790
S1132CD0AEE04A2815D10023442209A92000574C0C
S1132CE0A047002800D0A3E0584B1B68002B00D15C
S1132CF09EE0564B1B68199A0392110009A8984745
S1132D0096E0462805D0482805D006264D2803D04D
S1132D104CE0062600E009260023102205A9200025
S1132D20464FB847002800D082E005AA0C20105670
S1132D30D3899C4603014349C91800230B73082710
S1132D40D35F98465389994609AF53887B81069B84
S1132D500C93CA8892B294451FD14346002B0DDDD3
S1132D60A8450BDA23004B44424669468A818A8986
S1132D70009232003900364CA04759E009AB424674
S1132D809A80002309932E4B1B68002B50D02C4BA8
S1132D901B6809AA310098474AE0102D48D901233D
S1132DA0002200210020254CA04741E0452805D001
S1132DB0472805D007254C2803D022E0072500E04A
S1132DC008250023082209A920001C4CA04700283C
S1132DD02ED109AB002018569A88598805AB198062
S1132DE003011849CB18DB889BB29A4220D1144BBB
S1132DF01B68002B1CD0124B1B6805AA290098479E
S1132E0016E0522814D10123142209A920000B4CE6
S1132E10A04700280CD10F4B0A9A1A601B68002B9C
S1132E2006D00C4B1C6809AB1A7C0B990998A04777
S1132E301BB00CBC90469946F0BDC046B1100000D2
S1132E40E402002034020020CE000020EC02002026
S1132E50892A0000E802002010B50A4B1B78002BD9
S1132E600ED1B02200210848084B98470849022097
S1132E70084B98470122034B1A700022064B1A8014
S1132E8010BDC046CD00002034020020850900009A
S1132E90792B0000DD110000CE000020024B1860E9
S1132EA0024B19607047C046E4020020EC02002087
S1132EB070B586B01600022848D1012949D00B22EA
S1132EC00724022947D0083C4FE025002301CB18F2
S1132ED09B7A002B33D12001254BC01810220021EE
S1132EE0244B98472B01224AD31801229A72224A72
S1132EF0138801339BB2138013889BB2002B03D138
S1132F00138801339BB213801B4B1A8892B22B0196
S1132F101749CB18DA8064B2F30726D505AA1470D2
S1132F202D014D192123EB72002302930193009389
S1132F30043350210220114DA84716E00C490134F6
S1132F40E4B29442C1D3012464420EE001246442F9
S1132F500BE007220024250023010549CB189B7AA6
S1132F60002BEBD120014018B8E7200006B070BD5B
S1132F703402002085090000CE0000208D0B0000E3
S1132F8070B588B0041E2FDB002930D003011D4822
S1132F90C3189B7A012B2DD1002A2ED02301C318EC
S1132FA0DB7A4426DB0705D52301C318DA7A05AB9F
S1132FB05A72073605AD2C7208222800124B984726
S1132FC02401104B1C19E3886B81002302930193A5
S1132FD000930C332A00310002200C4CA047002837
S1132FE00DD0092040420AE00620404207E00620B6
S1132FF0404204E00620404201E00620404208B07E
S113300070BDC04634020020710900008D0B000021
S113301030B589B00C00002833DB002934D0AF234D
S1133020DB009A4233D803011D49CB189B7A012B4C
S113303030D104A908704A800301194DEB18DB88CC
S11330408B815025062800DD0C3D03011449CB1863
S1133050DB7A4521DB0705D50001114B18180589DA
S1133060ADB2073180231943029501920094703B5D
S113307004AA02200B4CA047002300280CD00E3BCE
S11330800AE006235B4207E006235B4204E00623D2
S11330905B4201E006235B42180009B030BDC04624
S11330A0340200208D0B000030B587B0002833DBDC
S11330B0002934D0002A35D004011E4D2C19A47ADD
S11330C0012C32D10401615129198A80097B002223
S11330D000292CD12A1901211173D27A4531D20742
S11330E000D50731002B02D1013B049300E0049387
S11330F004AA107100010F4B1818C388D380002351
S1133100029301930093083302200B4CA047002242
S113311000280CD00E3A0AE00622524207E00622AA
S1133120524204E00622524201E0062252421000BA
S113313007B030BD340200208D0B000030B587B0DD
S1133140041E29DB0301184AD3189B7A012B26D1CC
S113315005A908700201144B9B18DA884A800022E2
S11331609A72DA80DB7A4921DB0700D50531002326
S1133170029301930093043305AA02200B4DA84740
S1133180051E01D009256D4224010748201810228C
S11331900021074B984704E006256D4201E006250F
S11331A06D42280007B030BD340200208D0B0000B2
S11331B08509000010B584B004000D4B9847C3B2D4
S11331C0402B10D8FF231840431C00220292019286
S11331D000922200CA210220064CA047002804D0F5
S11331E00920404201E00620404204B010BDC04620
S11331F0950900008D0B000070B582B00400294BC6
S113320098470005000D0025274B984247D901A98E
S11332102648274B9847051E41D12649019B194052
S1133220254B194301912148244B9847002C16D073
S113323000212348214CA047AB212248A04701216B
S11332402148A04700212148A04781212048A047C8
S1133250204E214C3000A0470128FBD115E000216D
S11332601748164CA047B9211648A0470121164813
S1133270A04700211548A04781211548A047154EB5
S1133280154C3000A0470128FBD10A49019B194085
S113329080235B02194301910448084B9847280096
S11332A002B070BDF11A00009F030000101400006A
S11332B0051E0000FF8F88F800101101111E000088
S11332C0080201000C020100140201001C020100AA
S11332D00402010018020100F91D00000C4B1B68D8
S11332E0002B10D1EFF31083002B09D172B6BFF37A
S11332F05F8F0022074B1A700132074B1A7002E0ED
S11333000022054B1A70024A136801331360704798
S1133310D000002010000020D4000020084B1A68C0
S1133320013A1A601B68002B09D1064B1B78002B4D
S113333005D00122044B1A70BFF35F8F62B6704749
S1133340D0000020D400002010000020F0B583B08D
S113335001AC012565700027A77025702100172096
S1133360064EB04780221204054B9A61277065709F
S113337021003720B04703B0F0BDC04665350000DA
S1133380004400411723002A0DD18B00074A9B58A3
S1133390002B03D189008850002304E0834201D02C
S11333A01D2300E0002318007047C046F4020020EB
S11333B01723002907D100221F2800D8034A01231C
S11333C08340D360002318007047C04600180040B3
S11333D01723002907D100221F2800D8034A0123FC
S11333E083409360002318007047C04600180040D3
S11333F070B50022154B1A7000231F25144E134C70
S11334001F2B19D90FE0002100E012490A619B002B
S11334109B59002B00D0984723780133DBB22370EB
S11334200F2BEDD911E02900194001228A40002117
S113343009691142E7D1EFE72900194001228A40C6
S1133440044909691142E0D1E6E770BDF0020020A9
S1133450F402002000180040044A117802230B43B0
S1133460137053785BB2002BFBDB704700180040ED
S113347000B583B0124A916940230B43936101A9BB
S113348000230B7005200F4B984705200E4B9847DF
S11334900E4A117801230B43137053785BB2002B4F
S11334A0FBDB0B4B19004031002204C39942FCD1D1
S11334B01022084B1A60084B984703B000BDC04661
S11334C000040040854A0000F9490000001800404B
S11334D0F402002000E100E05934000000230360FE
S11334E0436001220272427283720233C3727047D4
S11334F0F0B583B005000C0001A900234B70CB701C
S113350023790B70237A8B702078144B9847002012
S11335101F2D00D81248072129408900E27AA37A96
S1133520002B01D008231A43EB089B00C3189E69A3
S11335300F278F40BE438A4032439A61637A002B3F
S113354005D042690123AB401343436104E043695E
S11335500122AA409343436103B0F0BD7D4B0000B8
S11335600018004000B583B001AB80221A700A78BD
S11335705A704A789A708A78DA701900014B984721
S113358003B000BD7D4B000010B549084023002462
S1133590814201D20AE01C00091A631C9BB28842D2
S11335A0F9D94023FF2C01D814800023180010BD42
S11335B0F0B55F4656464D464446F0B489B00C001B
S11335C0059212AA117802004A434025A24200D96A
S11335D0C6E0002B51D1020008000021644DA84729
S11335E08346260000270023002400930194002230
S11335F000233F2020218C461F3902960397202464
S11336006442041903D40D00A540A84604E06446AE
S1133610241A0D00E540A8460C008440A14614007D
S11336201D00A4185D4122002B0046465F463E4221
S113363003D00E00264332002B00029C039D9D42C2
S11336400FD801D194420CD8029C039D121BAB41AC
S11336504D46009E019F35433C0046463443009549
S113366001940138CBD20022012300980199121A47
S11336708B41120C1B041A436FE00022012B6CD106
S1133680630F0493E30098460A0000230021384C9A
S1133690A04704000D0000239C46069320339B465C
S11336A001266346079300230293002200233F214F
S11336B0009401950F0020214942791803D4300069
S11336C08840844604E05946C91B3000C8408446FB
S11336D03100B94089461000190080185941020090
S11336E00B0044464D462C40A2466446049D2C40A3
S11336F0A446544665462C4303D0340004432200B8
S11337000B000098019999420AD801D1904207D838
S113371000980199121A8B4102994846014302917B
S1133720013FC8D2009C019D0299079A8B1ADB08BD
S113373010498B420BD9069B0133DBB21900069367
S11337401300013307930829ADD1402508E0402533
S1133750069A082A04D052031A43059B1A800025AE
S1133760280009B03CBC90469946A246AB46F0BD41
S1133770B95A0000FF1F000010B582B004000E4BC0
S11337801B78002B01D000290DD001A90C70132047
S11337900A4B984713200A4B9847074B5C70012249
S11337A01A70002006E0044B5B78834201D01D2090
S11337B000E0002002B010BDD8000020854A0000BF
S11337C0F9490000444B984233D006D8434B984201
S11337D00DD0434B98421BD06FE0424B98424AD0E5
S11337E0414B984258D0414B984266D132E001296E
S11337F006D0002963D0022906D0032906D001E0AF
S11338003B4867E0002065E03A4863E03A4861E0FD
S1133810012906D0002954D0022906D0032906D054
S113382001E0364856E0002054E0354852E035487F
S113383050E0012906D0002945D0022906D00329E9
S113384006D001E0304845E0002043E02F4841E045
S11338502F483FE0012906D0002936D0022906D09E
S1133860032906D001E02B4834E0002032E02A4846
S113387030E02A482EE0012906D0002927D0022969
S113388006D0032906D001E0254823E0002021E0EA
S113389024481FE024481DE0012906D0002918D03F
S11338A0022906D0032906D001E0204812E00020B6
S11338B010E01F480EE01F480CE000200AE01E48FC
S11338C008E0032006E01D4804E01D4802E01D480E
S11338D000E01D487047C046001000420008004246
S11338E0000C004200180042001C00420014004278
S11338F003000500030006000300070003000100A5
S113390003001E0003001F000300090003000A0057
S113391003000B0003001100030012000300130056
S113392003000D0003000E0003000F000300170046
S1133930030018000300190003000400030008003A
S11339400300100003000C000300160030B587B01C
S11339500C4B6A4632CB32C232CB32C2009B83421A
S113396006D001239A0069465258824203D100E0EE
S11339700023D8B203E00133062BF3D1002007B0B3
S113398030BDC046947B00007047C046F0B50A4B7A
S11339901B78002B0CD1094F094E0A4D0024DE512F
S11339A05A1914600433182BF9D10122024B1A70EE
S11339B08000024BC150F0BDDA000020DC00002082
S11339C0893900003403002010B582B004000622B7
S11339D005496846054B98472000054B98476B46B8
S11339E0185602B010BDC046AC7B00005D5B000001
S11339F04D39000010B5024B1B680020984710BDDC
S1133A00DC00002010B5024B5B680120984710BD14
S1133A10DC00002010B5024B9B680220984710BDC3
S1133A20DC00002010B5024BDB680320984710BD72
S1133A30DC00002010B5024B1B690420984710BD20
S1133A40DC00002010B5024B5B690520984710BDCF
S1133A50DC000020F0B58BB005000C0016002960D6
S1133A600B681C209B0700D5BEE00B681738DB07EA
S1133A7000D5B9E008005D4B98475D490A6A871C88
S1133A800123BB4013430B6209A92427F35D0B7088
S1133A901430C3B201931800564B98470198564B03
S1133AA09847F05D0021554B98473378012B03D19B
S1133AB022680B33134323602B000C332900283175
S1133AC0002204C39942FCD10023EB62AB620024C0
S1133AD0AB862B863633EC540133EC540133EC546F
S1133AE0353B6B722C712868404B9847070044495A
S1133AF0444B9847B800444BC5502F6804AB802210
S1133B001A705C707F3A9A70DC703378002B02D1A3
S1133B10002204AB9A70B36A0593F36A0693336B7D
S1133B200793736B08930024E1B2A30005AA985885
S1133B30002802D13800354B9847431C06D002AB0D
S1133B401872000CC0B204A9314B98470134042CFC
S1133B50EAD133786B71337CAB71B37CEB71337D19
S1133B602B72002202ABDA803378012B14D128683F
S1133B701E4B98471430C0B2264B9847010002AB45
S1133B809A1DB069244B984703001720002B2BD1B2
S1133B9002AB06331B783B737368B2681343F26855
S1133BA01343327C717C002903D11C49897889072D
S1133BB001D580210B43B17C002902D080218902E8
S1133BC00A43F17C002902D0802189000A43317D17
S1133BD0002902D0802189010A4339680B433B60E4
S1133BE07B6813437B6000200BB0F0BD4D390000AF
S1133BF000040040854A0000F949000079370000BC
S1133C00113D00008D39000034030020C537000049
S1133C107D4B0000A14A00008935000000200041CE
S1133C2010B544791523012C6ED1047A0023002C9D
S1133C306AD1002A58D04B78002B44D003681B7EED
S1133C40DB0710D40B78D9090022002904D15A09C2
S1133C50D2012E498C4662441F210B401E399940E3
S1133C609161052350E00B78DC090022002C04D17B
S1133C705A09D201254CA44662441F2423401E3C09
S1133C809C40546103681A7ED20701D58A789A62EF
S1133C90C2790023002A37D102680421137E0B4223
S1133CA0FCD0117E002349072ED5538B5B0701D529
S1133CB0042353838379012B02D1936A002323E0E5
S1133CC0936A002320E00B78D9090022002904D14B
S1133CD05A09D2010D498C4662441F210B401E39FA
S1133CE09940516100230FE00B78D9090022002983
S1133CF004D15A09D20105498C4662441F210B4064
S1133D001E39994091610023180010BD0044004100
S1133D10F8B58000674BC45826683723E35C362225
S1133D20A75C1F40337EB57D1D40EB073DD563790D
S1133D30012B3AD1637A002B0FD15F4B1B88B362FE
S1133D40638E013B9BB26386638E9BB2002B01D1D1
S1133D50013333756379012B27D1637A002B24D087
S1133D602068E16A0B78DAB24B1CE362A379012B79
S1133D7001D093B204E04B781B0213430231E16299
S1133D80DB05DB0D8362A38E013B9BB2A386A38E6E
S1133D909BB2002B09D101333375637A012B04D113
S1133DA0E379002B01D10233B3756B075FD5738BB5
S1133DB05B0712D5637A012B0BD01E223823E25401
S1133DC0353B6372023333753B0702D52000A36988
S1133DD09847B36A0423738349E0637A012B16D1AD
S1133DE023689B6A638E013B9BB26386638E9BB29E
S1133DF0002B3CD10433337500223433E254353B79
S1133E006372FB0733D52000E36898472FE02368EB
S1133E109B6ADB05DB0DDAB2A16A0A70A26A511C47
S1133E20A162A179012904D11B0A5370A36A013349
S1133E30A362238E013B9BB22386238E9BB2002B6D
S1133E4015D100223833E254343B3375637A022BA4
S1133E5005D17B070BD520006369984707E0637A97
S1133E60002B04D1BB0702D5200023699847AB0778
S1133E7014D56379012B11D1637A012B0ED1E37927
S1133E80002B0BD1023333750133637200223533B7
S1133E90E254FB0702D52000E3689847ED0907D0F8
S1133EA08023337533767B0602D5636A20009847F6
S1133EB0F8BDC046340300204C030020F0B55F4633
S1133EC056464D464446F0B491B005000C00160029
S1133ED029600800B94B984722680523D20700D50A
S1133EE064E122681733920700D55FE1B4490A6A96
S1133EF0871C1B3BBB4013430B620FA92D27F35DAB
S1133F000B701430C3B202931800AE4B984702985A
S1133F10AD4B9847F05D0021AC4B9847F37A6B7139
S1133F202423F35CAB712523F35CEB71F37E2B72DA
S1133F30337F6B722B6899461800A04B9847143056
S1133F4000220E2306A98C4663441A80328A029208
S1133F508023DB019A421AD004D880239B019A4221
S1133F600BD004E1C023DB01029A9A420AD08023D9
S1133F701B029A4200D1FFE0F9E0102306930F3BA5
S1133F800793FDE008230693073B0793F8E03368A3
S1133F900493F3689B4673690393337E9846262300
S1133FA0F35C059373689A46002B15D080235B0558
S1133FB09A4536D12723F35C002B36D1336A1F0090
S1133FC0C0B2834B984701000E2206AB9C46624464
S1133FD03800804B984725E0082306930023079375
S1133FE02723F35C002B0BD0069B0093079B0E2228
S1133FF006A98C466244B16A306A774FB84711E02B
S1134000336A1F00C0B2724B98470100069B0093AD
S1134010079B0E2206A88446624438006E4FB847B8
S113402000E00020031E00D0C0E0737E002B02D00D
S1134030B37E4A4693732A68029FD369002BFCD14E
S11340400E3306AA944663441B884A469381049B14
S11340505A461343039A1343524613433B4342467F
S113406012021343059A57071F432723F35C002BBF
S113407001D104331F43717E8902337F5B021943EC
S1134080737F1B0219432423F35C5B041943252328
S1134090F25C12041143F37A19433389FF2B04D0E1
S11340A0802252041743194305E0F37E002B02D00B
S11340B08023DB041F432C23F35C002B03D1474BE9
S11340C09B789B0701D580231F432A68D369002B63
S11340D0FCD14B4659602A68D369002BFCD14B466E
S11340E01F600EAB80221A7000225A70DA709A7028
S11340F0336B0A93736B0B93B36B0C93F36B029355
S11341000D9300270EAEF9B2BB000AAA98580028F6
S113411002D12000324B9847431C05D03070000C6C
S1134120C0B231002F4B98470137042FEBD1002345
S1134130EB602B616B61AB61EB612B62AB626B6219
S11341400022EB85AB853033EA540133EA54013362
S1134150EA540133EA542868184B9847040022496A
S1134160224B9847A400224BE55000231EE0102365
S113417006930023079303E0032306930023079386
S113418033680493F3689B4673690393337E9846BC
S11341902623F35C059373689A46002B00D11FE72E
S11341A080235B059A4500D104E73EE7180011B06F
S11341B03CBC90469946A246AB46F0BD4D39000042
S11341C000040040854A0000F949000079370000E6
S11341D0A14A000089350000B135000000200041EB
S11341E0C53700007D4B0000914200008D3900006E
S11341F034030020C2791C23002A0ED0C28D92B24F
S1134200173B002A09D10368DA69002AFCD1198511
S113421002211A7E0A42FCD0002318007047C046CF
S113422082791C23002A30D0828D92B2173B002A57
S11342302BD10268107E400727D5D369002BFCD10F
S1134240538BDBB298061DD0980703D50223538302
S113425018331AE0580703D5042353831A3314E0A0
S1134260D80703D50123538312330EE0D80603D5B0
S113427010235383323308E09B0603D52023538352
S1134280213302E0138D0B80002318007047C046D1
S1134290F8B58000604BC5582C68E369002BFCD14D
S11342A0237EA67D1E403023EB5C3122AF5C1F4091
S11342B0F30722D5EB8D9BB2002B1CD0AA6A13788E
S11342C0DBB2511CA9626979012901D09BB204E0D7
S11342D0517809020B430232AA62DB05DB0D238508
S11342E0EB8D013B9BB2EB85002B06D1013323758B
S11342F00133A37501E001232375B30709D5022314
S1134300237500223133EA54FB0702D52800EB68F9
S11343109847730760D5AB8D9BB2002B5AD0638B43
S1134320DBB21A0702D43F22134001E037221340C4
S1134330002B2DD09A0705D51A223223EA54303B9C
S113434063831FE05A0705D51E223223EA542E3B0D
S1134350638317E0DA0705D513223223EA54313B8D
S113436063830FE0DA0605D542223223EA54223B66
S1134370638307E020221A4204D021323223EA5414
S1134380123B63837B0727D528006B69984723E09A
S1134390238DDB05DB0DDAB2696A0A706A6A511C87
S11343A069626979012904D11B0A53706B6A01336C
S11343B06B62AB8D013B9BB2AB85002B0CD10433FC
S11343C0237500222E33EA54BB0705D528002B6938
S11343D0984701E004232375F30607D510232375BA
S11343E02376FB0602D52800EB699847B30607D568
S11343F02023237523763B0702D52800AB69984711
S1134400330707D5082323752376BB0602D52B6A09
S113441028009847F8BDC0463403002010B508288A
S113442003D880001B4B1B589F46002030E01A4BDA
S113443018692DE0194B1B6A9B059B0F1848D8403F
S113444026E0154B586923E0134B1B6802201840E3
S11344501ED012491022CB681A42FCD00E4B1B68A6
S11344605B0714D500200F4B98470B4B9B681B042C
S11344701B0C58430CE05023084AD35C00205B0714
S113448006D5054BD86803E08020000200E006480A
S113449010BDC046B47B0000F400002000080040BA
S11344A000127A00A14A0000006CDC0270B50C4CCA
S11344B0236A0178857842780120024092014026DF
S11344C0B343134302002A40D2017F308343134392
S11344D003220A40120203490B401343236270BDB6
S11344E000080040FFFCFFFFF0B55F4656464D460E
S11344F04446F0B483B02E4EB38A9C464578037884
S11345005A425A41914683789B46C3780279904631
S1134510477B027B0192847B8268264842610120AA
S11345204A469200914604229246624651468A4384
S113453094464A4661460A43944642460240D200A3
S1134540904608229146624649468A43944642462A
S113455061460A43944603401B011022904662467A
S113456041468A431343594601404901202293435B
S11345700B43019A0240920140218B4313430740AD
S1134580FF01802293433B43793A15402D020A4FA1
S11345903B402B4304402003084C1C400443B4829A
S11345A003B03CBC90469946A246AB46F0BDC0461B
S11345B000080040F4000020FFF8FFFFFFEFFFFFBA
S11345C010B5037A9B061A0C43899B059B0D134374
S11345D0194C63608179C3791943438882881343F2
S11345E00B434278D201134323600378042B0FD189
S11345F0037B9B06028A13431900C3891B040F4AD9
S113460013400B43A360216804230B43236011E090
S1134610202B0FD1037B9B06028A13431900C38905
S11346201B04064A13400B43034A9360136804496E
S11346300B43136010BDC046F40000200000FF03CC
S113464024040000082803D88000254B1B589F46EB
S1134650172044E0234A116A02230B43136200200B
S11346603DE0204A916902230B439361002036E028
S11346701C4A118A02230B43138200202FE0194A9B
S1134680918A02230B439382002028E016490B6889
S1134690022213430B60134B9A8419000E32CB6829
S11346A01A42FCD0104A91680E4BD96252689A6241
S11346B000229A8419001032CB681A42FCD00A4BAB
S11346C01B689BB2074A9384002008E005494422F2
S11346D0885C022303438B54002000E000207047D1
S11346E0D87B000000080040F4000020F0B58FB033
S11346F0C222D200474B9A6047494B681E2293431B
S11347001A3A13434B60023A01AB1A700024434D2A
S1134710E0B201A9A8470134252CF9D10AA8002345
S113472003708370802212028260C37001220271BE
S113473003738373023242704373394B98470520E5
S1134740384B984733490222CB681A42FCD0314A8D
S1134750918A80230B43938205AB00210022598068
S113476099809A71DA713F3159813B3919705A70C5
S11347702D4B1B689B0E3F2B00D1203B05A80372D9
S11347802A4B0382072303733833C381284B98478A
S113479004A800254570012686700570254B9847AE
S11347A00620204FB847244B984701AC0296657009
S11347B02572657205232370210001201F4B984741
S11347C001201F4B9847267021000020134B984767
S11347D000201C4B98470720B8470E49D022CB68CD
S11347E01340D02BFBD1184A0023137253729372D7
S11347F0D37201A901224A604B700B724B720733CA
S11348000B7000200D4B984700200D4B98470FB0BC
S1134810F0BDC0460008004000400041854A000049
S1134820E94400004546000024608000B90500000A
S1134830C1450000AD4400004D480000714800002F
S113484029490000F949000000040040064A916922
S113485008230B4393610122044B1A7019000B784F
S11348601342FCD17047C04600040040000C0040D5
S113487070B5060005000C78240204434B78002B25
S113488002D08023DB021C434B7A002B02D080230E
S11348901B031C434868012818D9431E184210D131
S11348A0022806D90223002201325B009842FBD879
S11348B000E0002212023243150080235B031C43F4
S11348C004E00502354380239B021C430B7A002B32
S11348D002D080239B031C430F4A53785BB2002B06
S11348E0FBDB0E4B98470E4B1E700B4A53785BB2A2
S11348F0002BFBDB084B9D601A0053785BB2002B46
S1134900FBDB054A516880235B020B401C43546067
S1134910044B984770BDC046000C0040DD320000D7
S1134920080C00401D33000010B504000B4A5378F6
S11349305BB2002BFBDB0A4B98470A4B1C70074AFF
S113494053785BB2002BFBDB044A53688021490295
S11349500B435360044B984710BDC046000C004005
S1134960DD320000040C00401D33000070B504006B
S11349701A4A53785BB2002BFBDB194B9847194B4F
S11349801C70164A53785BB2002BFBDB134E706825
S1134990C004C00E144B98470500124B1C70766877
S11349A0F602F60F114B1C700C4A53785BB2002BC5
S11349B0FBDB0A4B9C682402240C0D4B9847002E09
S11349C007D1012C07D9210028000A4B984705007C
S11349D001E00134E540280070BDC046000C0040F1
S11349E0DD320000040C00401D440000080C0040AF
S11349F01D330000A159000010B50400064B984770
S1134A00064B1C70064A51888023DB010B435380FC
S1134A10044B984710BDC046DD320000020C004034
S1134A20000C00401D33000010B504000F4B9847E4
S1134A300F4B1C700F4B5A881205100F59880E4AE1
S1134A400A405A8059880D4A0A405A801900802227
S1134A50D2014B881342FCD106494C880202064B12
S1134A60234013434B80064B984710BDDD320000B2
S1134A70020C0040000C0040FFF0FFFFFFBFFFFFEF
S1134A801D33000010B50C7824020443024B9847F0
S1134A90A4B2024B5C8010BD294A0000000C004007
S1134AA010B50400064B9847064B1C70064B5C88F7
S1134AB02405240F054B98472000054B984710BD4B
S1134AC0DD320000020C0040000C00401D330000E9
S1134AD06D49000030B5D378002B1ED11378802B9C
S1134AE004D01B0680246402234300E0002354788E
S1134AF00225AC430AD19478002C03D18024A4026B
S1134B00234302E0C024E402234341605478013C7F
S1134B10012C12D8184C23400FE041600B041B0CED
S1134B20A024E405234383620B0CD02424062343EE
S1134B308362D378002B18D01CE00C04240CA0252D
S1134B40ED052C431C4384620C0CD0252D062C430C
S1134B501C438462D478002C0CD15B0305D5937874
S1134B60012B01D1816100E041615378013B012BAC
S1134B7000D8816030BDC046FFFFFBFF10B50300C5
S1134B800A00C1090020002904D15809C0010549BF
S1134B908C4660441F210B401E399940024B9847B4
S1134BA010BDC04600440041D54A00007047C046CD
S1134BB010B5054B9847054B9847054B9847054B4F
S1134BC09847054B984710BDED4600004D33000053
S1134BD0AD4B000071340000AD4B0000FEE7C04651
S1134BE070B52E4B2E4A9A4203D02E4B2B4A9A4232
S1134BF004D32D4B2D4A9A4210D31EE02C4A294B44
S1134C0003339B1A9B0801339B0000222348244949
S1134C108C58845004329A42FAD1EAE7254A224B4E
S1134C2003339B1A9B0801339B0000221F48002179
S1134C301418216004329A42FAD11F4AFF211F4BF3
S1134C408B439360FD3990235B001D4AD1501D486E
S1134C50C3780324A34302221343C370C3780C26EE
S1134C60B34308210B43C370174B987B3025A843EB
S1134C700500202028439873987BB043014399731F
S1134C80997BA1430A439A73104A516880230B43CA
S1134C9053600F4B98470F4B9847FEE700000020E6
S1134CA018820000780000207003002078000020A3
S1134CB0040000207C00002000ED00E00000000063
S1134CC00070004100500041004800410040004194
S1134CD0115B000081570000F0B5474680B40C001A
S1134CE0904600280DD1002A0EDD8F18084E094D7C
S1134CF0306821002B6898470134A742F8D1404618
S1134D0003E00120404200E0002004BC9046F0BDD6
S1134D105803002050030020F0B5474680B40E002D
S1134D2015000138022811D8002A12D000240C4B97
S1134D3098460C4F43461868315D3B6898470028F5
S1134D4009DB0134A542F5D1200006E001204042F0
S1134D5003E0002001E00120404204BC9046F0BD85
S1134D6058030020540300200300064A1268002A56
S1134D7002D10549034A1160024A1068C31813603E
S1134D807047C0460C0100207023002001204042DF
S1134D907047C04680239B014B6000207047C0468B
S1134DA00120704700207047F0B585B006000D0063
S1134DB02A492B4B9847002808D12A493000284B10
S1134DC09847002805D00127274C04E00227274CE8
S1134DD001E000270024002D14D02368002B00D10B
S1134DE0256002236A461380A3881A021B0A134310
S1134DF06A465380019506202056102269461C4BB2
S1134E00984728E01B4A1378591E1170002B13D0C1
S1134E1012493000124B9847002803D01648174B0C
S1134E20984718E00F4930000D4B9847002812D0DE
S1134E301348124B98470EE006202056114B984712
S1134E40FF23A3710023E37103220A4B1A70390074
S1134E500B200D4B984705B0F0BDC0462C7C0000DC
S1134E60F90900003C7C00002C0100201401002002
S1134E70812F000012000020447C0000B5310000A6
S1134E805C7C00003D310000B9560000F0B5020022
S1134E900378002B2BD00020202525270F261C006B
S1134EA0303C092C0CD91C00AC43413C192C07D9CB
S1134EB01C002D3C012C03D95F2B01D07E2B02D189
S1134EC00B7001310CE00F7013781B09094CE35C83
S1134ED04B7013783340E35C8B70023080B2033143
S1134EE00132013080B21378002BD8D100E00020C9
S1134EF0F0BDC046187C0000F8B54F464646C0B425
S1134F0006000D0002280ED11D2238492800384C15
S1134F10A047384B1968302228001D30A047364B73
S1134F2099464D2410E00020012E5BD11A2233490A
S1134F3028002F4CA047324B1968282228001A3029
S1134F40A047304B9946422428190D222E49284F58
S1134F50B8470D3429194B4698682C4B9846984706
S1134F60201884B2281907222949B8470734A4B263
S1134F7029194B46D868C0472418A4B228190D2211
S1134F802449B8470D34A4B229194B461869C047BF
S1134F902418A3B29846E81811221F49B84740467E
S1134FA0113084B2022E08D1281917221B49104B44
S1134FB0984744462834A4B209E0012E07D12819A1
S1134FC0102217490A4B984744462134A4B22819A1
S1134FD004221449064B9847231D9BB20022EA542D
S1134FE0601D80B20CBC90469946F8BD707C0000F0
S1134FF0710900002801002014010020907C0000A9
S1135000100100202C010020AC7C00008D4E00001B
S1135010BC7C0000C47C0000D47C0000447C000004
S11350205C7C0000E87C0000F8B5061E4CD0FF2034
S113503000294AD00024254D09390F0030190922CE
S11350402349A847002839D10934A4B234190322CA
S1135050204920001D4B984703001420002B34D016
S113506003221D492000194B984703002820002BD8
S11350702BD0032219492000144B98470300292000
S1135080002B22D0032216492000104B984703001E
S11350902A20002B19D00322124920000B4B9847D9
S11350A003002E20002B10D003220F492000074BB1
S11350B09847434243413220C01A06E00134A4B267
S11350C0BC42BBDBFF2000E0FF20F8BD410A00002A
S11350D0F07C0000FC7C0000007D0000047D0000EA
S11350E0087D00000C7D0000107D0000F0B5C1B00B
S11350F004001500454B9B795BB2834208D0444BB6
S11351009B795BB2984200D07DE00126404F01E0DC
S113511002263E4F05293CD10123EB56002B14D126
S1135120694630003B4B9847020000236946200043
S1135130394CA04706203856384B48223849394C58
S1135140A0470322384B1A705DE0374A1378591E82
S11351501170002B0DD0022E04D139683348344B22
S1135160984750E0012E4ED139683248304B984769
S113517049E006203856304B9847FF23BB71002383
S1135180FB7131000A202D4B98470322264B1A70DD
S113519039E0062925D1286800280CD00423E95ECB
S11351A000290FDD264B1B78FF2B08D189B2254B34
S11351B09847234B18700422AB5E002B02DDEB886A
S11351C0002B20D1062038561B4B9847FF25BD7174
S11351D00023FB711A4C20783100184B9847257036
S11351E011E007290FD10023EC5E002C0BDCD42244
S11351F0520015491548164DA84721001548A847DF
S11352000D20154B984741B0F0BDC0461401002055
S11352102C010020F94E000011300000A8610000AC
S113522040010020A930000011000020447C00004F
S1135230A94D00005C7C00003D310000B95600001F
S11352401300002029500000C87D0000E06C00001D
S1135250815B0000147D0000B55B000070B50400A4
S11352600D00184B984718491848194B9847002CBB
S113527002D0184B1C6008E01748184B9847184890
S1135280184B98470D20184B9847002D02D0174B08
S11352901D6008E01048114B98471548114B98477A
S11352A00D20114B9847134D142200212800124E53
S11352B0B047124C142200212000B047FF23AB71E9
S11352C0A37170BD592E0000A94D0000ED500000DF
S11352D09D2E000010010020C06F0000815B0000C3
S11352E02C7D0000A15C0000B55B000028010020BB
S11352F0407D00002C0100208509000014010020DD
S1135300F8B54F464646C0B405000F0090461E004F
S113531008AB1B789946002800D18DE0002900D104
S11353208DE0002A00D18DE0002E00D18DE002280E
S113533010D1574B1B68002B00D09FE05548564BAB
S113534098475648564B98470D20564B984701208E
S1135350404299E001287BD1534B1B68002B00D0BD
S113536080E04C484C4B984750484D4B98470D2093
S11353704C4B98470120404286E04D4C00E04D4C98
S113538030004D4B984747283ED838004A4B984741
S11353900F2839D84046484B98470F2834D8A7607F
S11353A04346E36026614B46002B03D15033A38070
S11353B0002203E0BC23FF33A38001220121022049
S11353C03E4B9847A071002810DB0123E371022DA6
S11353D004D13B483B4B9847002055E00020012D69
S11353E052D13948374B984700204DE0374A384965
S11353F03848294B98473848294B98470D20294B62
S11354009847012040423FE09D22920030493148B4
S1135410214B98473148224B98470D20214B984700
S11354200120404230E02E481B4B98470D201D4B75
S113543098470120404227E00120404224E0012017
S1135440404221E0012040421EE0012040421BE096
S11354500C20404218E0234A1D491E480E4B984731
S11354602149E0E7124BDB79002B86D0F3E71D4A94
S113547017491848084B98471C49D4E70D4BDB796A
S1135480002B00D17BE7F2E70CBC90469946F8BDAF
S113549028010020C06F0000815B0000407D0000F7
S11354A0A15C0000B55B0000100100202C7D000011
S11354B02C0100201401002095090000B12E0000E9
S11354C0447C0000B53100005C7C00006E020000EA
S11354D0FC7B0000E06C0000607D0000907D00001B
S11354E0A87D00007A020000587D0000547D000071
S11354F0034B1B6A1B02DB0F024A13707047C04642
S1135500804400415C03002030B583B005000C00EA
S11355100648074B98470023009323002A000549B7
S11355200120054CA047002003B030BDE47D0000FD
S1135530815B0000508100000153000010B582B06F
S11355400C002C2804D0322814D0092841D125E09D
S11355500B78012B05D12048204B9847204B9847C6
S113556037E0002B35D11F481C4B984700221E4BB7
S11355701A702EE08B784A780978E07800901B48FE
S11355801B4CA0471B491C481C4B98471C491D48F1
S11355901D4B98470122144B1A701AE01B480F4BFD
S11355A098476323E35C002B10D12000184B9847E5
S11355B0230021336222A25CC1B2FF2000902000AC
S11355C0144CA0470122144B1A7002E01348034BF9
S11355D0984702B010BDC046007E0000A15C0000E8
S11355E0F1180000147E000069030020287E0000EA
S11355F0815B0000547E0000887E00005D52000044
S1135600B47E0000CC7E000009550000DC7E000062
S1135610295E0000D5180000BF010020047F0000AF
S113562070B582B005000E0000226B46DA80064C8D
S11356306B46991D2800A0470028F9D16B46063314
S11356401B88337002B070BD2142000070B50500A4
S11356508CB2034E21002800B0470028FAD170BD57
S1135660F541000010B584B001AC2000074B984709
S11356703723019300236360013323720233E372FF
S113568021000720024B984704B010BDDD34000010
S1135690F134000010B5002207210448044B984758
S11356A000210720034B984710BDC046F154000069
S11356B085330000B133000010B5142803D1044829
S11356C0044B984703E001000348044B984710BD7E
S11356D0207F0000A15C0000407F0000815B00008F
S11356E010B5044B1B78002B03D003490348044B2B
S11356F0984710BD690300205C7F0000707F0000A4
S11357000955000010B5802212040A4BDA610A4AD6
S1135710136801331360094B1B88002B03D0013B32
S1135720064A138004E0064A044B1A80054B984746
S113573010BDC0460044004160030020BC010020AD
S11357400F0E0000E15600000A4B1B78002B03D01B
S1135750013B084A137004E00123064A1370064A09
S11357601370064B1B68002B02D0013B034A1360E5
S11357707047C046BE010020680300206403002077
S1135780F0B5474680B498B05B4B984702AA802393
S1135790DB05029300235360FF21118100219372E2
S11357A0D3720124242014540130145401301354AE
S11357B00130135493620530135401301354536170
S11357C01382D3761176117751761323937651771A
S11357D0C4239B03D36001235B4213635363474B8E
S11357E09363474BD363E1235B021362454D464BFE
S11357F01D604649464B19604649474B1960474965
S11358002800474B9847474F3B6898680021464E0D
S1135810B0473B6858680021B0472E683000434BBE
S113582098471F2318408440414B1C602B68DA6959
S1135830002AFCD132680223134333603D483E4CB6
S1135840A0473E48A0473E4B98473E4B98473E4BA7
S11358501E6A3602F60F3D4B1E703D4B98473D4B7A
S113586098473D4B01221A70BFF35F8F62B63B4BE2
S113587098471822002112A8394B9847394B1293A4
S113588012A8394B9847011E03D03848384B984723
S1135890FEE7FF230093374B022208213648374C9A
S11358A0A047374C294F374B98460020A047002883
S11358B0FBD13D78AE4214D043461B68002B11D176
S11358C00222304B1A60002D05D02F492F48304B4F
S11358D098472E0006E02F492C482D4B98472E0060
S11358E000E02E002C4B1B78002BDED000222A4B2C
S11358F01A702A4B9847D8E7B14B000003002A00DE
S113590003002B0088010020580300204D5600009E
S113591054030020215600005003002000180042C8
S1135920BD3E000074000020B55C0000C9390000D1
S113593000E100E07C7F0000A15C00008C8000009E
S1135940D50300004D040000804400415C030020A6
S11359506556000095560000100000201D0600004A
S11359606F5B00003D55000055150000E880000005
S1135970815B00001081000020810000D518000028
S11359804D160000640300202881000034810000CB
S113599009550000448100006803002005570000F9
S11359A0002243088B4274D303098B425FD3030A5A
S11359B08B4244D3030B8B4228D3030C8B420DD36D
S11359C0FF22090212BA030C8B4202D312120902FB
S11359D065D0030B8B4219D300E0090AC30B8B4239
S11359E001D3CB03C01A5241830B8B4201D38B03E7
S11359F0C01A5241430B8B4201D34B03C01A52418C
S1135A00030B8B4201D30B03C01A5241C30A8B42CE
S1135A1001D3CB02C01A5241830A8B4201D38B02B9
S1135A20C01A5241430A8B4201D34B02C01A52415D
S1135A30030A8B4201D30B02C01A5241CDD2C309CF
S1135A408B4201D3CB01C01A524183098B4201D34B
S1135A508B01C01A524143098B4201D34B01C01A36
S1135A60524103098B4201D30B01C01A5241C308AE
S1135A708B4201D3CB00C01A524183088B4201D31D
S1135A808B00C01A524143088B4201D34B00C01A09
S1135A905241411A00D20146524110467047FFE775
S1135AA001B5002000F006F802BDC0460029F7D079
S1135AB076E770477047C046F0B54F464646C0B4D7
S1135AC01604360C9946330005042C0C070C150CEF
S1135AD063437E436F4365431C0CAD1964199C46B4
S1135AE0A64203D980235B02984647446346250CAB
S1135AF0EF191D044B464A4343432D0C24046419F7
S1135B009918C91920000CBC90469946F0BDC046AE
S1135B100E4B70B500251E000D4CE41AA410A542CE
S1135B2004D0AB00F35898470135F8E702F064FB62
S1135B30084B00251E00084CE41AA410A54204D00A
S1135B40AB00F35898470135F8E770BD04820000B4
S1135B50048200000482000008820000002310B5C3
S1135B609A4203D0CC5CC4540133F9E710BD03005E
S1135B708218934202D019700133FAE7704700008B
S1135B800FB40B4B13B51C68002C05D0A369002B74
S1135B9002D1200000F012FB05AB049AA16820009A
S1135BA0019300F0D1FC16BC08BC04B01847C046F1
S1135BB074000020084B70B51C680500002C05D04B
S1135BC0A369002B02D1200000F0F8FA2900A26892
S1135BD0200000F065FF70BD7400002070B5050062
S1135BE00E00002804D08369002B01D100F0E6FAEE
S1135BF0AB69AC68002B02D1280000F0DFFA254B1A
S1135C009C4201D16C6808E0234B9C4201D1AC68F2
S1135C1003E0224B9C4200D1EC68A3891B0702D508
S1135C202369002B11D12100280000F05DF9002820
S1135C300BD0012040422BE0013B0136A360002B36
S1135C4008DB23685A1C226019703178A368002984
S1135C50F2D10BE0A269934201DB0A29F1D12200BF
S1135C60280000F0E9F8431CEFD1E2E7013BA36010
S1135C70002B08DA22000A31280000F0DDF8431C6A
S1135C80D7D00A2004E00A2023685A1C2260187026
S1135C9070BDC0466481000084810000A4810000BE
S1135CA010B5034B01001868FFF798FF10BDC046FC
S1135CB0740000204A424A41802310B55200DB00A0
S1135CC000F002F810BD0000F0B51D00514B85B086
S1135CD01E6804000F000092002E05D0B369002B4B
